:020000040000FA
:100000000C9437030C9468030C9468030C946803F5
:100010000C9468030C9468030C9468030C946803B4
:100020000C9468030C9468030C9468030C946803A4
:100030000C9468030C9403260C9468030C946803D6
:100040000C9468030C9468030C9468030C94680384
:100050000C9468030C9468030C9468030C94B92501
:100060000C9468030C94ED260C94C3260C9468033E
:100070000C9468030C9468030C9468030C94680354
:100080000C9468030C9468030C9468030C94680344
:100090000C9468030C9468030C9468030C94680334
:1000A0000C9468030C9468030C9468030C94680324
:1000B0000C9468030C9468030C9468030C94680314
:1000C0000C9468030C9468030C9468030C948D26BC
:1000D0000C9463260C9468030C9468030C946803D6
:1000E0000C9468030C9475200C9468240C942523BC
:1000F0000C94BC230C9483240C94EA200C940704E5
:100100000C94F6080C94C4200C94D2200C94D113B7
:100110000C945D200C9490200C94BD1D0C94F6035F
:100120000C941F040C9423090C940F230C941104B9
:100130000C9450370C948A150C948C240C94CA207F
:100140000C94E5220C9466150C94FA030C94DA20B6
:100150000C948D200C94A61D0C94DB1D0C94A538DA
:100160000C942E220C94C0200C949E240C94833763
:100170000C947B200C94E7200C9494350C94D8209C
:100180000C94D41D0C9468220C9487220C9481202A
:100190000C9429040C9460200C94FA130C94E8033A
:1001A0000C94F2030C946F200C945A200C94460982
:1001B0000C94B8200C94A3360C94DC200C9482236D
:1001C0000C94911D0C9466200C9495240C940304BB
:1001D0000C94E4200C9423040C9454090C94722085
:1001E0000C94B5200C94BB200C94881D0C94EC3618
:1001F0000C948A200C94C6200C94CE200C94D02011
:100200000C9496090C94F71D0C94DE230C946A3719
:100210000C94C61D0C940D040C94031E0C94CD1D5F
:100220000C9457200C9423270C940A140C948720C8
:100230000C9470130C941A230C9454200C948B156A
:100240000C94F9220C944F180C9478200C94883755
:100250000C94A9360C94CC200C94F3200C94B23658
:100260000C9427140C9471240C94F6360C94A63636
:100270000C94E1200C9469200C94F01D0C94FD3634
:100280000C9425370C94E91D0C94EF200C948420D9
:100290000C9452220C949F1C0C94D0230C94AF36D7
:1002A0000C94DA130C9428040C9462220C941B0412
:1002B0000C947A240C94C5350C9473370C946320F9
:1002C0000C94AF1D0C94E2220C9430230C94042364
:1002D0000C94FD030C94A6230C94EC200C94C820E1
:1002E0000C946A110C942D040C9498230C94DB3616
:1002F0000C946C200C948D370C9415040C94D6201F
:100300000C94BE200C94D4200C94EE220C94B120BA
:100310000C948B230C94F1200C942F240C9478379C
:100320000C947E200C942E370C9480220C94AC36C6
:100330000C945C150C9432090C949E360C94E21DBE
:100340000C94E3090C94FD1D0C94EE030C94DF2037
:100350000C94C2200C94A7245B4349562077617407
:100360006368646F673A206E6F20646174615D003A
:100370005B434956206D6F64653D005B43495620E1
:10038000667265713D002D4C5D005B505454005BFE
:100390005054542050412D4C5D002D485D005B5061
:1003A0005454005B505454205345512D4C5D005B18
:1003B0005054542050412D485D005B5054542053FC
:1003C00045512D485D005B496E7465726C6F636BBF
:1003D0003D00202020202020202020202020202020
:1003E0002020006C6F6164656420002020202020A4
:1003F000202020202020202020202000206D697334
:1004000073696E6700206D697373696E67200020E1
:1004100020202020202020202020202020202000FC
:10042000534420696E6974206661696C00534420EE
:10043000696E6974206661696C202020200020208C
:100440002020202020202020202020202020005399
:10045000442063617264206D697373696E67005331
:10046000442063617264206D697373696E67200054
:100470002D2D2D20534420434F4E464947202D2DEE
:100480002D002D2D2D2049434F4D2043492D562021
:100490002D2D2D002D2D2D205054542053455155D8
:1004A000454E434552202D2D2D0042642066736B2E
:1004B0003D00487A20727474793D00207369646548
:1004C0003D00207061643D00206D6F64653D004B10
:1004D000657965722077706D3D002D2D2D204B457F
:1004E000594552202D2D2D002D2D2D204C434420DB
:1004F00052554E54494D45202D2D2D004F46460056
:100500004F4E005B4465627567200020202020204C
:1005100020202020202020202020200020202020FB
:100520002020202020202020202020200020726158
:10053000773D005B42544E2000000021002400273C
:10054000002A002D003000330001010000040107E3
:10055000010A01000020002300260029002C002FA2
:100560000032000001000003010601090100000A39
:100570000B02090C0D0E0807030401000000000027
:10058000000000000000000000000000000000006B
:100590000000000000000000001211100000000028
:1005A000000000000000000000000000000000004B
:1005B0000000007C3C3E5E2B3D3F2F5B5D3B2C2AC8
:1005C000225C00010210202008081020401020406A
:1005D0008002010201080402010102040810204007
:1005E0008080402010080402018004020180402025
:1005F000100804020108040201010204081020404E
:1006000080010204081020408000002200250028FC
:10061000002B002E0031003400020100000501080B
:10062000010B010505050507050808080802020277
:10063000020A0A080804040404010101010101017D
:10064000010303030303030303040707070C0C0C54
:100650000C0C0C0C0C02020202060606060606062C
:10066000060B0B0B0B0B0B0B0B022327A5381124CE
:100670001FBECFEFD1E2DEBFCDBF00E00CBF2BE04D
:10068000A4E7B6E001C01D92AA34B207E1F716E074
:10069000A0E0B2E0E8EAFDE700E00BBF02C007908F
:1006A0000D92A437B107D9F713E0C6E3D3E000E019
:1006B00006C021970109802FFE010E946E39C533C3
:1006C000D10780E00807A9F70E94D3270C94C23E07
:1006D0000C940000CF92DF92EF92FF92CF93DF93C2
:1006E000EC016A017B01E889F98982E08083C11409
:1006F00081EED806E104F104A1F060E079E08DE339
:1007000090E0A70196010E942D392150310941093D
:1007100051095695479537952795211580E138075A
:1007200098F0E889F989108260E874E88EE190E039
:10073000A70196010E942D39215031094109510923
:100740005695479537952795EC85FD853083EE8541
:10075000FF852083188EEC89FD8986E08083EA89F5
:10076000FB89808180618083EA89FB898081886040
:100770008083EA89FB89808180688083EA89FB899C
:1007800080818F7D8083DF91CF91FF90EF90DF900C
:10079000CF9008958150823108F05AC0E82FF0E0E0
:1007A0008827EA52FC4F8F4F0C946E39F603FA03F8
:1007B000E803EE03F2032804FD03030407040D0419
:1007C000110415041B041F042804230429042D0408
:1007D000809180008F7780938000089580918000C1
:1007E0008F7DF9CF80918000877FF5CF84B58F779B
:1007F00084BD089584B58F7DFBCF8091B0008F7745
:100800008093B00008958091B0008F7DF9CF8091E2
:1008100090008F77809390000895809190008F7D55
:10082000F9CF80919000877FF5CF8091A0008F77DE
:100830008093A00008958091A0008F7DF9CF8091D2
:10084000A000877FF5CF809120018F7780932001D2
:100850000895809120018F7DF9CF80912001877FBD
:10086000F5CFCF93DF93282F30E0F901E359FA4F0A
:100870008491F901ED53FA4FD491F901ED5DF94FEF
:10088000C491CC23A1F081110E94CA03EC2FF0E0A7
:10089000EE0FFF1FED5AFA4FA591B491EC91ED23A5
:1008A00081E090E009F480E0DF91CF91089580E04D
:1008B00090E0FACF1F93CF93DF93282F30E0F90118
:1008C000E359FA4F8491F901ED53FA4FD491F901AC
:1008D000ED5DF94FC491CC23A9F0162F81110E9430
:1008E000CA03EC2FF0E0EE0FFF1FE75FF94FA59171
:1008F000B4918FB7F894EC91111108C0D095DE2314
:10090000DC938FBFDF91CF911F910895DE2BF8CF3D
:10091000CF93DF9390E0FC01ED53FA4F24918D5D6E
:10092000994FFC0184918823C9F090E0880F991FAA
:10093000FC01E75CFA4FA591B491FC01E75FF94F28
:10094000C591D49161110DC09FB7F8948C912095F9
:1009500082238C938881282328839FBFDF91CF91A6
:100960000895623051F49FB7F8943C91822F80959E
:1009700083238C93E8812E2BEFCF8FB7F894EC91E3
:100980002E2B2C938FBFEACF4F925F926F927F9264
:100990008F929F92AF92BF92CF92DF92EF92FF928F
:1009A0000F931F93CF93DF9300D01F921F92CDB769
:1009B000DEB78C012A013B01809132028430C9F0FC
:1009C0008F3F09F492C00F900F900F900F900F90EF
:1009D000DF91CF911F910F91FF90EF90DF90CF901B
:1009E000BF90AF909F908F907F906F905F904F904F
:1009F0000895E9E6F6E084918D8387FDE4CF61E018
:100A000084E00E9488049D81992321F08D818230A9
:100A100009F0D2C14801B12CA12C60E072E18AE753
:100A200090E0A50198010E944F3929833A834B83B6
:100A30005C8369017A0191E0C91AD108E108F108E3
:100A40008FEFC816D104E104F10409F00CF483C15E
:100A500060E472E48FE090E0A50198010E944F39B4
:100A600069017A0191E0C91AD108E108F1088D8184
:100A7000823009F011C182E09FEFC916D104E10470
:100A8000F10409F00CF460C160E970ED83E090E0DE
:100A9000A50198010E944F3969017A0181E0C81AC5
:100AA000D108E108F10883E09FEFC916D104E10401
:100AB000F10409F00CF448C168E478EE81E090E0BC
:100AC000A50198010E944F3969017A0191E0C91A84
:100AD000D108E108F1088FEFC816D104E104F10450
:100AE00011F00CF019C184E02FC184E08093320230
:100AF000E9E6F6E094919D83892F9F3F09F463CF47
:100B0000923009F469C060F4992381F1913009F4BD
:100B100045C087FD58CF61E084E00E94880476CF0D
:100B20009D81943009F49AC008F478C0953089F713
:100B30001092200110922101809121018860809300
:100B4000210180912101816080932101E7E2F6E09B
:100B5000E491F0E0EE0FFF1FE75FF94F859194916C
:100B6000E7ECF5E0E491E093620949CF14BC15BCD1
:100B700084B5826084BD85B5816085BDE7E2F6E01D
:100B8000E491F0E0EE0FFF1FE75FF94F859194913C
:100B9000E7ECF5E0E491E093690931CF1092800031
:100BA0001092810080918100886080938100809103
:100BB0008100816080938100E7E2F6E0E491F0E05B
:100BC000EE0FFF1FE75FF94F85919491E7ECF5E099
:100BD000E491E093680913CF1092B0001092B10035
:100BE0008091B00082608093B0008091B1008160FC
:100BF0008093B100E7E2F6E0E491F0E0EE0FFF1F32
:100C0000E75FF94F85919491909367098093660906
:100C1000E7ECF5E0E491E0936509F1CE10929000E5
:100C20001092910080919100886080939100809152
:100C30009100816080939100E7E2F6E0E491F0E0BA
:100C4000EE0FFF1FE75FF94F85919491E7ECF5E018
:100C5000E491E093640983E08D83D1CE1092A000EB
:100C60001092A1008091A10088608093A1008091E2
:100C7000A10081608093A100E7E2F6E0E491F0E05A
:100C8000EE0FFF1FE75FF94F85919491E7ECF5E0D8
:100C9000E491E0936309B3CE8FEFC816D104E10469
:100CA000F10409F00CF486C068E478EE81E090E08D
:100CB000A50198010E944F3969017A0191E0C91A92
:100CC000D108E108F1088D81882309F48DC18FEFE7
:100CD000C816D104E104F10409F00CF404CF62E178
:100CE0007AE780E090E0A50194010E944F39690104
:100CF0007A0191E0C91AD108E108F1088D818823B1
:100D000009F447C18FEFC816D104E104F10411F0D2
:100D100008F048C186E018C064E274EF80E090E01B
:100D2000A50194010E944F3969017A0191E0C91A25
:100D3000D108E108F1088FEFC816D104E104F104ED
:100D400011F008F041C185E09091B100987F892BA6
:100D50008093B10008C081E09D819111F5CF95B5D8
:100D6000987F892B85BD2FEF3FEFA90141145104D6
:100D70006104710409F049C09D81923009F4E7C013
:100D80000CF0CEC0992309F4D3C0913009F01BCEEA
:100D9000D0928900C092880020937A0930937B0911
:100DA00040937C0950937D0980916F00826080930D
:100DB0006F0009CE82E0D0CFB12CA12C60E072E1AF
:100DC0008AE790E0A50198010E944F3969017A01F4
:100DD00081E0C81AD108E108F108C114D10491E0FA
:100DE000E906F10404F591E08D81813069F5809187
:100DF0008100887F892B809381002FEF3FEFA9012D
:100E0000411451046104710419F2D801AA0FBB1FE7
:100E1000A30192010E94FF3828EE33E040E050E049
:100E20000E942D39A9CF68E478EE81E090E0A50119
:100E300098010E944F3969017A0181E0C81AD108EE
:100E4000E108F10893E0D0CF8D81833001F58091E6
:100E50009100887F892B809391002FEF3FEFA901AC
:100E6000411451046104710481F6D0929900C0923A
:100E7000980020937209309373094093740950933A
:100E80007509809171008260809371009CCD8D8185
:100E9000843009F58091A100887F892B8093A1007F
:100EA0002FEF3FEFA901411451046104710409F0CF
:100EB000ACCFD092A900C092A80020936E093093C5
:100EC0006F0940937009509371098091720082609C
:100ED0008093720078CD8D81853009F044CF809168
:100EE0002101887F892B809321012FEF3FEFA901FA
:100EF000411451046104710409F087CFD092290193
:100F0000C092280120936A0930936B0940936C09C1
:100F100050936D098091730082608093730053CD6C
:100F20008D81843031F20CF4A0CF853039F34BCD74
:100F3000C7BC20937E0930937F094093800950936A
:100F4000810980916E00826080936E003CCDC092DA
:100F5000B300209376093093770940937809509332
:100F60007909809170008260809370002CCDC980D7
:100F7000DA80EB80FC809AE0F594E794D794C794EC
:100F80009A95D1F791E0C91AD108E108F10885E0F6
:100F9000E6CE8FEFC816D104E104F10409F038F76A
:100FA00084E0DDCEC980DA80EB80FC808AE0F594B5
:100FB000E794D794C7948A95D1F791E0C91AD108DC
:100FC000E108F10887E0C0CE62E17AE780E090E0D6
:100FD000A50194010E944F3969017A0191E0C91A73
:100FE000D108E108F1088ECE83E09FEFC916D10445
:100FF000E104F10411F00CF072CEB1CE90917B00BF
:10100000977F90937B008653806480937C008091CF
:101010007A00806480937A0080917A0086FDFCCF0C
:10102000809178009091790008953FB7F89480916D
:101030005B0790915C07A0915D07B0915E0726B5B4
:10104000A89B05C02F3F19F00196A11DB11D3FBF00
:10105000BA2FA92F982F8827BC01CD01620F711DCF
:10106000811D911D42E0660F771F881F991F4A95C9
:10107000D1F708958F929F92AF92BF92CF92DF9255
:10108000EF92FF924B015C010E9415086B017C01FD
:101090000E9415086C197D098E099F09683E7340EE
:1010A00081059105A8F321E0821A9108A108B108F1
:1010B00088EEC80E83E0D81EE11CF11C8114910457
:1010C000A104B10429F7FF90EF90DF90CF90BF907B
:1010D000AF909F908F9008952FB7F8946091570725
:1010E000709158078091590790915A072FBF089522
:1010F0009091320289130DC0E9E6F6E0E4919FEF8A
:1011000090933202E230E1F038F4EE2381F0E130E6
:1011100089F060E00C945A04E43049F110F1E530B4
:10112000C1F7909173009D7F90937300F2CF10925E
:101130006E00EFCF90916F009D7F90936F00E9CF8D
:10114000909170009D7F9093700091E09093B0001B
:101150009091B100987F94609093B1001092B30089
:10116000D8CF909171009D7F90937100D2CF9091D4
:1011700072009D7F90937200CCCFDC01ED91FC91C9
:101180000190F081E02D1994DB0114964D915C9152
:1011900015976D917C91DC01ED91FC910280F381BA
:1011A000E02D1994EF92FF920F931F93CF93DF934B
:1011B0008C017B01D0E0C0E0F701EC0FFD1F6491D2
:1011C000662361F0D801ED91FC910190F081E02D52
:1011D000C8011995892B11F02196EECFCE01DF9130
:1011E000CF911F910F91FF90EF900895AF92BF9212
:1011F000CF92DF92EF92FF920F931F93CF93DF93E3
:101200006C017B018B01040F151FEB015E01AE1811
:10121000BF08C017D10759F06991D601ED91FC9133
:101220000190F081E02DC6011995892B79F7C50150
:10123000DF91CF911F910F91FF90EF90DF90CF90B2
:10124000BF90AF900895FC01538D448D252F30E061
:10125000842F90E0821B930B541710F0CF960895C3
:1012600001970895FC01918D828D981761F0A28DF0
:10127000AE0FBF2FB11D5D968C91928D9F5F9F73B6
:10128000928F90E008958FEF9FEF0895FC01918D6C
:10129000828D981731F0828DE80FF11D858D90E0D9
:1012A00008958FEF9FEF0895FC01918D228D892F76
:1012B00090E0805C9F4F821B91098F73992708955E
:1012C00082E899E00E94540921E0892B09F420E08A
:1012D000822F08958FE19AE00E94540921E0892B22
:1012E00009F420E0822F0895FC01A48DA80FB92FE6
:1012F000B11DA35ABF4F2C91848D90E001968F733E
:101300009927848FA689B7892C93A089B1898C915C
:10131000837080648C93938D848D981306C00288AB
:10132000F389E02D80818F7D80830895EF92FF9275
:101330000F931F93CF93DF93EC0181E0888F9B8DF8
:101340008C8D98131AC0E889F989808185FF15C0B2
:101350009FB7F894EE89FF896083E889F9898081D5
:101360008370806480839FBF81E090E0DF91CF91A4
:101370001F910F91FF90EF900895F62E0B8D10E0C6
:101380000F5F1F4F0F731127E02E8C8D8E110CC035
:101390000FB607FCFACFE889F989808185FFF5CF80
:1013A000CE010E947409F1CFEB8DEC0FFD2FF11DE2
:1013B000E35AFF4FF0829FB7F8940B8FEA89FB89BD
:1013C00080818062CFCFCF93DF93EC01888D88231B
:1013D000B9F0AA89BB89E889F9898C9185FD03C098
:1013E000808186FD0DC00FB607FCF7CF8C9185FF7D
:1013F000F2CF808185FFEDCFCE010E947409E9CF45
:10140000DF91CF91089580E090E0892B29F00E9430
:101410006A0981110E94000080E090E0892B49F068
:1014200080E090E0892B29F00E94000081110E9449
:10143000000080E090E0892B29F00E946009811172
:101440000E94000080E090E0892B49F080E090E06D
:10145000892B29F00E94000081110C94000008954E
:101460008FB7F89480919E068FBF089561E0FC01CC
:1014700084810E945A0480919D06811110929D06DC
:1014800008958EBD00000DB407FEFDCF8EB5089502
:101490008FEF0C94410A0F931F93CF93DF93EC01CE
:1014A0000E946C088B010E94480A8F3F69F00E94DD
:1014B0006C08601B710B6C177D07A8F380E0DF914F
:1014C000CF911F910F91089581E0F9CF8CBD9DBD03
:1014D0000895CF93DF93EC0180919D06811109C09F
:1014E00081E080939D068091BC0A9091BD0A0E9484
:1014F000660A60E08C81DF91CF910C945A048F9240
:101500009F92AF92BF92FF920F931F93CF93DF935F
:10151000EC01F62E49015A018E81882389F08F81D2
:1015200098859C012F5F3F4F38872F8382309240F0
:1015300018F40E94480AF3CFCE010E94360A1E8298
:10154000CE010E94690A8CE291E00E944B0A8F2D25
:1015500080640E94410A08E110E0D501C401002E18
:1015600004C0B695A795979587950A94D2F70E94DF
:10157000410A08501109083F8FEF180771F785E9F4
:10158000FF2021F028E087E8F2128FEF0E94410A45
:1015900010E00E94480A8A8787FF04C01F3F11F0AD
:1015A0001F5FF7CFDF91CF911F910F91FF90BF90F9
:1015B000AF909F908F900895AF92BF92CF92DF929D
:1015C000EF92FF920F931F93CF93DF93EC0169018A
:1015D000C801820F931F8130924050F58E8188237D
:1015E00079F088819981AA81BB8184179507A60724
:1015F000B70731F48F819885C816D90608F042C024
:10160000488359836A837B838B85833039F089E0F3
:10161000440F551F661F771F8A95D1F79A01AB01BA
:1016200061E1CE010E947F0A882389F083E08D83E7
:10163000CE010E94360A80E0DF91CF911F910F9179
:10164000FF90EF90DF90CF90BF90AF9008950E94F1
:101650006C085B010E94480A8A878F3F69F40E94E8
:101660006C086A197B096D327140A0F38FE08D839D
:10167000CE010E94360ADCCF8E3F89F418861F8285
:1016800081E08E838F8198858C159D0550F40E9492
:10169000480A8F819885019698878F83F3CF8DE0D4
:1016A000E6CF6701E00EF11E0E94480AF601819321
:1016B0006F01EE15FF05C1F78F819885080F191F7F
:1016C00018870F838985882319F001151240A0F02F
:1016D0008E81882389F08F8198859C012F5F3F4FF1
:1016E00038872F838230924018F40E94480AF3CF43
:1016F000CE010E94360A1E8281E09ECFCF92DF92F9
:10170000EF92FF920F93CF93DF93EC01690182E197
:10171000411551056105710599F08B85833039F0CC
:1017200089E0440F551F661F771F8A95D1F79A01EC
:10173000AB0168E1CE010E947F0A882319F084E0A2
:101740008D832DC08EEF0E94410A76018EEFD81A4C
:10175000F70181917F010E94410AEC14FD04C1F759
:101760008FEF0E94410A8FEF0E94410A0E94480AAF
:101770008A878F71853071F4011116C0CE010E94E5
:10178000360A81E0DF91CF910F91FF90EF90DF90CB
:10179000CF90089581E18D83CE010E94360ACE015B
:1017A0000E94360A80E0EECF88E592E00E944B0A64
:1017B000811102C085E1C4CF20E030E0A9016DE0D5
:1017C000CE010E947F0A882311F084E1B9CF0E94E4
:1017D000480A8111FACFD2CF0F9340919F065091C2
:1017E000A0066091A1067091A20641155105610500
:1017F000710599F0082F22E637E080915F079091FC
:1018000060070E947E0B882349F010929F06109279
:10181000A0061092A1061092A20681E00F910895F1
:101820000F93CF93C82F80916107811105C0C1E04C
:101830008C2FCF910F91089540912E0250912F023D
:1018400060913002709131020C2F22E637E08091D6
:101850005F07909160070E947E0B811102C0C0E07B
:10186000E7CFCC2321F381E00E94EC0B8823B9F36E
:1018700010926107DDCF8F929F92AF92BF92EF924D
:10188000FF920F931F93CF934B015C01C42F809164
:101890002E0290912F02A0913002B0913102881552
:1018A0009905AA05BB0551F181E00E94100C811138
:1018B0000BC080E0CF911F910F91FF90EF90BF90F0
:1018C000AF909F908F90089582E6E82E87E0F82EE3
:1018D00000E012E030E020E0B501A40180915F0754
:1018E000909160070E94DC0A882319F380922E02EF
:1018F00090922F02A0923002B09231024091610783
:101900004C2B4093610781E0D5CF8F929F92AF928D
:10191000BF92CF92DF92EF92FF92CF932EEB3AE0FD
:101920003093600720935F07882309F46DC040E07F
:1019300060E070E0CB010E943B0C81110BC080E0A5
:10194000CF91FF90EF90DF90CF90BF90AF909F909E
:101950008F900895809120098F7789F780912C09C5
:1019600090912D09A0912E09B0912F0984369105EF
:10197000A105B10520F3C0902809D0902909E09075
:101980002A09F0902B09C114D104E104F104B9F241
:1019900040E0C701B6010E943B0C882381F2809190
:1019A0006D0790916E078115924049F6A0917207DC
:1019B000AA2329F260917007709171076115710572
:1019C00009F4BDCF20916F07222309F4B8CFA0936B
:1019D000DC0A2093CE0A90E080E030E0E1E0F0E025
:1019E000C82FAF01082E02C0440F551F0A94E2F71A
:1019F0002417350769F041E0480F019689309105B9
:101A000079F74093D70A9BCFC12CD12C7601C0CF58
:101A10008093D70A209178073091790750E040E011
:101A20002115310541F420918607309187074091B7
:101A30008807509189072093CF0A3093D00A4093AA
:101A4000D10A5093D20A46015701860E971EA11C57
:101A5000B11C8092DD0A9092DE0AA092DF0AB09259
:101A6000E00AE0917307F0917407F093E30AE093C2
:101A7000E20AB0E00E94FF38DC01CB01880D991D1D
:101A8000AA1DBB1D8093E40A9093E50AA093E60A81
:101A9000B093E70A25E0EE0FFF1F2A95E1F7E1502A
:101AA000FE4FEF2FFF27E6958E0F9F1FA11DB11D43
:101AB0008093D80A9093D90AA093DA0AB093DB0AEC
:101AC0008090750790907607B12CA12C8114910419
:101AD00041F48090820790908307A0908407B09093
:101AE0008507C81AD90AEA0AFB0AC80CD91CEA1CDD
:101AF000FB1C04C0F694E794D794C794CA95D2F718
:101B0000C092D30AD092D40AE092D50AF092D60AB3
:101B100085EFC8168FE0D806E104F10428F48CE0C4
:101B20008093E10A81E00CCF80E125EFC2162FEF10
:101B3000D206E104F104A0F380918E0790918F0703
:101B4000A0919007B09191078093E40A9093E50AE1
:101B5000A093E60AB093E70A80E2E2CF4F925F9249
:101B60006F927F928F929F92AF92BF92CF92DF92AD
:101B7000EF92FF920F931F93CF93DF93EC014230CC
:101B800051056105710590F480E0DF91CF911F91BF
:101B90000F91FF90EF90DF90CF90BF90AF909F900C
:101BA0008F907F906F905F904F90089589859A8570
:101BB000AB85BC850196A11DB11D84179507A607AD
:101BC000B70710F3CB88DC88ED88FE888F898031D9
:101BD00009F042C0BB27A72F962F852F4801590136
:101BE0002A013B01C80ED91EEA1EFB1E80912E025F
:101BF00090912F02A0913002B0913102C816D906FF
:101C0000EA06FB0699F58F898031C1F5B301A2017F
:101C1000552766277727440F551F4E59584FFA010D
:101C200091828082809161078160809361078A89B7
:101C3000823080F08D819E81AF81B8858C0D9D1D95
:101C4000AE1DBF1D80939F069093A006A093A10692
:101C5000B093A20681E099CFDB01CA01E7E0B69517
:101C6000A79597958795EA95D1F7B8CF40E0C7013A
:101C7000B6010E943B0C8111C6CF86CFB301A201F1
:101C80004F77552766277727440F551F440F551F59
:101C90004E59584FFA0180829182A282B382C2CFFC
:101CA0008F929F92AF92BF92CF92DF92EF92FF926C
:101CB0000F931F93CF93DF93FC0181859285A385BA
:101CC000B4850196A11DB11D84179507A607B70716
:101CD00070F480E0DF91CF911F910F91FF90EF9012
:101CE000DF90CF90BF90AF909F908F9008958388A2
:101CF0009488A588B6888789803189F5BB27A72F66
:101D0000962F852FE9016A017B018F01BC01CD016E
:101D1000680D791D8A1D9B1D80902E0290902F02C8
:101D2000A0903002B090310286169706A806B90638
:101D300001F5F8018789803111F5DD24EE24FF24B7
:101D4000F601EE0FFF1FEE59F84F80819181B0E050
:101D5000A0E088839983AA83BB8381E0BBCFDB01AA
:101D6000CA01C7E0B695A79597958795CA95D1F70B
:101D7000C9CF40E00E943B0C8111DBCFAACFE89491
:101D8000C7F8DD24EE24FF24F601EE0FFF1FEE0F4F
:101D9000FF1FEE59F84F80819181A281B381BF70FE
:101DA000D8CF4F925F926F927F92AF92BF92CF92B5
:101DB000DF92EF92FF920F931F93CF93DF9300D0A8
:101DC0001F92CDB7DEB78C0149835A836B837C8326
:101DD0005901C12CD12C7601412C82E0582E612C66
:101DE000712C49815A816B817C819E012F5F3F4F0D
:101DF000C8010E94500E882339F1F8018585A3019E
:101E0000920104C0220F331F441F551F8A95D2F739
:101E1000DA01C901C80ED91EEA1EFB1E49815A818A
:101E20006B817C818789803111F188EF9FEFAFEF63
:101E3000BFE0481759076A077B0798F2F501C0828F
:101E4000D182E282F38281E00F900F900F900F9089
:101E5000DF91CF911F910F91FF90EF90DF90CF9086
:101E6000BF90AF907F906F905F904F90089588EFF4
:101E70009FEFA0E0B0E0DDCFCF93DF93FC012581A1
:101E8000222321F080E0DF91CF910895EC01809131
:101E9000E10A803159F582E08583178A108E118E10
:101EA000128E8091E20A9091E30AB0E0A0E025E072
:101EB000880F991FAA1FBB1F2A95D1F7838B948B7C
:101EC000A58BB68B8AEC9AE09C8F8B8F81E08C83FC
:101ED0001E821F82188619861A861B861C861D86FE
:101EE0001E861F86188A198A1A8ACDCF803251F62B
:101EF00083E085834091E40A5091E50A6091E60A07
:101F00007091E70A478B508F618F728F9F012D5E12
:101F10003F4F8AEC9AE00E94D10E8111D3CFB2CF0D
:101F20008F929F92AF92BF92CF92DF92EF92FF92E9
:101F30000F931F93CF93DF93EC018D8181110EC01E
:101F400080E0DF91CF911F910F91FF90EF90DF9094
:101F5000CF90BF90AF909F908F9008950B891C8970
:101F60002D893E89041715072607370748F34A01CC
:101F70005B01823031F48A869B86AC86BD8681E027
:101F8000E0CF81149104A104B10449F41E821F82A0
:101F9000188619861A861B861C861D86F0CF0A8530
:101FA0001B852C853D85EB8DFC8D858590E0099604
:101FB000B901A8014150510961097109082E04C0F5
:101FC00076956795579547950A94D2F77501640100
:101FD000E1E0CE1AD108E108F10804C0F694E794D4
:101FE000D794C7948A95D2F7C416D506E606F706A5
:101FF00020F0012B022B032B11F58F89988DA98DD1
:10200000BA8D8E839F83A887B9878E010A5F1F4F81
:10201000C114D104E104F10409F4ADCF4E815F8114
:102020006885798598018B8D9C8D0E94500E91E07A
:10203000C91AD108E108F1088111EACF81CFC41A89
:10204000D50AE60AF70AE1CF3F924F925F926F926C
:102050007F928F929F92AF92BF92CF92DF92EF9238
:10206000FF920F931F93CF93DF93CDB7DEB72C97DB
:102070000FB6F894DEBF0FBECDBF5C01DC015B96EE
:102080008D909C905C9716964D905D906D907C9095
:102090001997411451046104710409F468C0BFEF39
:1020A0004B1A5B0A6B0A7B0A312CF40181859285FD
:1020B000A385B4859C01AD012F5F3F4F4F4F5F4F0C
:1020C00029873A874B875C87730162011D821E82D4
:1020D0001F821886F40181859285A385B4852D81A0
:1020E0003E814F815885281739074A075B0708F05A
:1020F00056C089859A85AB85BC858C159D05AE0536
:10210000BF0550F482E0C82ED12CE12CF12C92E0D6
:10211000492E512C612C712C9E012F5F3F4FB7012E
:10212000A601C4010E94500E8823C9F189819A81B9
:10213000AB81BC81892B8A2B8B2B09F126013701BE
:102140009FEF491A590A690A790A2D813E814F8108
:1021500058852F5F3F4F4F4F5F4F2D833E834F83F7
:1021600058873FEFC31AD30AE30AF30AB3CFF40147
:1021700040805180628073803324339496CFC4149E
:10218000D504E604F70409F70FEF1FEF2FEF3FE048
:10219000B701A601C4010E94AE0D811119C080E0F3
:1021A0002C960FB6F894DEBF0FBECDBFDF91CF9156
:1021B0001F910F91FF90EF90DF90CF90BF90AF9065
:1021C0009F908F907F906F905F904F903F90089579
:1021D000D50116964D915D916D917C9119974115A0
:1021E00051056105710539F097018601C4010E940E
:1021F000AE0D8823A1F2D5011696CD92DD92ED9217
:10220000FC921997332051F0D701C6010196A11D08
:10221000B11DF40180839183A283B383F501878983
:10222000908DA18DB28D892B8A2B8B2B39F48481D3
:10223000C78AD08EE18EF28E80688483F501848116
:102240008062848381E0ACCF1F93CF93DF93FC0146
:1022500025812223D1F1162FEC01848187FF2AC02A
:10226000668577858089918941E00E943B0C8823AF
:1022700061F1EA8980E2E89FF0011124EE59F84FFC
:10228000309719F18D81823040F48B899C89AD891A
:10229000BE89848F958FA68FB78F8F89988D938FE6
:1022A000828F8F89988DA98DBA8DB58BA48B8C81E7
:1022B0008F778C83111103C08C818F7E8C83812F4B
:1022C000DF91CF911F910C94100C80E0DF91CF91A2
:1022D0001F910895FF920F931F93CF93DF93EC010B
:1022E0008D81813041F090E080E0DF91CF911F91AE
:1022F0000F91FF9008958C8181FFF5CF82FD1BC067
:1023000000915F0710916007C8010E94690A0E944E
:10231000480AF82EC8010E94360A8FEFF812E3CF60
:102320008C8185FF1BC060E0CE010E9424118C814E
:102330008F7D8C83D8CF4B895C896D897E898A8516
:102340009B85AC85BD8584179507A607B707C1F2A5
:10235000CE010E94900F8111D3CFC5CF40919F062F
:102360005091A0066091A1067091A206452B462BC4
:10237000472B21F080E00E94EC0BB5CF80618C836D
:102380002A853B85317080E092E0821B930BADCFB4
:10239000CF93DF93EC0161E00E942411882311F0B8
:1023A0001D8281E0DF91CF9108952F923F924F924D
:1023B0005F926F927F928F929F92AF92BF92CF92D5
:1023C000DF92EF92FF920F931F93CF93DF9300D092
:1023D0001F921F92CDB7DEB77C015B01342E5D8367
:1023E000DC0115968C911597813009F0CEC01496BA
:1023F0002C9021FECAC022FCB4C0C32CDD802294E4
:102400007FE027222094B22DB1702B2ED7011A968F
:102410004D915D916D917C911D97C114D10409F48A
:1024200028C15B968D919C915C97FC0174807A9495
:102430008A019B0169E036952795179507956A955E
:10244000D1F770228A011170711020C00115110599
:10245000E9F416964D915D916D917C911997411516
:1024600051056105710509F099C057968D919D91AF
:102470000D90BC91A02D0097A105B10509F0B0C049
:10248000C7010E942410882309F47FC080E092E0F5
:10249000801B910B46018C159D0508F44C01D7015A
:1024A0005B964D915C915C9716968D919D910D90E8
:1024B000BC91A02D0297A109B109FA01258504C09C
:1024C000880F991FAA1FBB1F2A95D2F746855785EB
:1024D00060897189840F951FA61FB71F9C01AD01EC
:1024E000270D311D411D511D29013A01811432E092
:1024F000930609F07BC080912E0290912F02A0914B
:102500003002B091310284159505A605B70559F43E
:102510008FEF9FEFDC0180932E0290932F02A09308
:102520003002B0933102022D9501B301A2018091D6
:102530005F07909160070E947E0B882331F19EEF28
:10254000B91AC818D908F70182859385A485B5857D
:10255000880D991DA11DB11D82879387A487B5871A
:1025600055CFF7014389548965897689828593859A
:10257000A485B585481759076A077B0709F43DCF3D
:10258000C7010E94900F811138CF81E090E0D70100
:1025900013969C938E93129780E007C09E012F5F45
:1025A0003F4F0E94500E811102C090E079C0898196
:1025B0009A81AB81BC81F701238D348DF901278984
:1025C00048EF5FEF60E070E0203121F048EF5FEF0F
:1025D0006FEF7FE084179507A607B70708F050CF85
:1025E000F70186839783A087B18750CF0115110526
:1025F00099F5D7011A964D915D916D917C911D973A
:1026000053968D919D910D90BC91A02D481759071F
:102610006A077B0708F181E00E94100C882309F407
:10262000B4CF40922E0250922F02609230027092EC
:10263000310280916107816080936107C8018E59E2
:10264000984FD5019C01280D391DFC012E173F071D
:1026500059F04D914193FACF41E0C301B2010E947C
:102660003B0C8111EBCF91CF281B390BA20EB31E6F
:1026700068CFF70183899489A589B689841795075E
:10268000A607B70738F48481438B548B658B768B10
:1026900080688483F701848183FD1AC0832D9D8126
:1026A0000F900F900F900F900F90DF91CF911F918F
:1026B0000F91FF90EF90DF90CF90BF90AF909F90E1
:1026C0008F907F906F905F904F903F902F900895E4
:1026D00061E0C7010E942411882309F456CFDECFA0
:1026E000CF93DF931F92CDB7DEB7698341E050E00F
:1026F000BE016F5F7F4F0E94D5110F90DF91CF9188
:102700000895FC01DB0112968D919C9113979383A0
:10271000828389ED92E09183808314968C91149743
:10272000848315968C911597858316964D915D91AE
:102730006D917C91199746835783608771871A96AC
:102740004D915D916D917C911D9742875387648770
:1027500075871E964D915D916D917C91519746873D
:102760005787608B718B52968C915297828B5396C0
:102770004D915D916D917C915697438B548B658BF8
:10278000768B57964D915D916D917C915A97478BC1
:10279000508F618F728F5B968D919C91948F838FF8
:1027A0000895FC01818D928D009719F061E00C94E1
:1027B00024110895DC015996ED91FC913097B9F000
:1027C00083899489A589B6894285538564857585F1
:1027D000841B950BA60BB70B811520E89207A1056A
:1027E000B10538F08FEF9FE7A0E0B0E0089590E0EA
:1027F00080E00895DC0159968D919C91009739F005
:10280000DC01ED91FC910480F581E02D199490E0BC
:1028100080E00895CF93DF93EC01E98DFA8D309736
:1028200049F481E090E09B838A8390E080E0DF912F
:10283000CF91089513821282898D9A8D0E94D511AD
:10284000E98DFA8D22813381232B59F7F0CFCF9375
:10285000DF931F92CDB7DEB76983DC01ED91FC9168
:102860000280F381E02D41E050E0BE016F5F7F4FB9
:1028700019950F90DF91CF9108952F923F924F922B
:102880005F926F927F928F929F92AF92BF92CF9200
:10289000DF92EF92FF920F931F93CF93DF9300D0BD
:1028A000CDB7DEB7FC018581811118C08FEF9FEF96
:1028B0000F900F900F90DF91CF911F910F91FF908C
:1028C000EF90DF90CF90BF90AF909F908F907F90D0
:1028D0006F905F904F903F902F900895848180FF7C
:1028E000E5CF438954896589768982859385A48556
:1028F000B585312C212C481759076A077B0719F039
:1029000022242394312C6F012101CE0101963C0138
:10291000DF011696BB83AA834114510409F4C5C094
:10292000F60142855385648575854A01F1E09F2251
:10293000D6015B968D919C915C978A019B01E9E0A1
:102940003695279517950795EA95D1F71596EC9149
:10295000E230E9F5FC01628D738D848D958D600FF9
:10296000711F821F931FA12C22E0B22EA818B90854
:102970004A145B0408F45201F601248126FD04C0C8
:10298000A114F2E0BF0671F400912E0210912F0203
:1029900020913002309131020617170728073907B6
:1029A00009F05EC040E00E943B0C882309F47ECF12
:1029B000C4018E59984FD3019C012A0D3B1DFC0187
:1029C0002E173F0709F46CC041914D93F9CFDC01FC
:1029D0001496BC90BA94B0228114910479F4B11089
:1029E0000DC0452B462B472B69F5F6018789908D45
:1029F000A18DB28D86839783A087B187D6015B9620
:102A0000ED91FC915C9716966D917D918D919C91C5
:102A100019976250710981099109258504C0660FD3
:102A2000771F881F991F2A95D2F706851785208959
:102A30003189600F711F821F931F6B0D711D811DE6
:102A4000911D91CFD60116964D915D916D917C911E
:102A500019972A813B810E94500E8111CFCF26CF3A
:102A6000730185019401AB01BC0180915F079091D6
:102A700060070E94DC0A882309F418CF6A0C7B1CCB
:102A8000F60182859385A485B5858A0D9B1DA11DC0
:102A9000B11D82879387A487B5874A185B083CCF0E
:102AA000281B390B620E731EEBCF2A94232809F0E2
:102AB000FDCE898190E0FCCEFC01818D928D009746
:102AC00011F00C943D148FEF9FEF08950F931F9317
:102AD000CF93DF93EC01898D9A8D10E000E0009791
:102AE00099F00E943D148C010F3F100769F0898D09
:102AF0009A8DFC0142855385648575854150510945
:102B0000610971090E94900FC801DF91CF911F9157
:102B10000F910895089590E080E00895CF93DF939A
:102B2000EB0140E550E060E070E00E94C4040E94C8
:102B30006C08665A7F4F8F4F9F4F60932A077093A0
:102B40002B0780932C0790932D07D0932907C093D0
:102B50002807DF91CF910895FC012081318146EF54
:102B60005FEF1616170614F44AE050E0240F351FE5
:102B70002730F7E23F0714F026E037E237FF02C0C4
:102B800030E020E0FC01318320830895833308F096
:102B900082E3853008F485E090912D02981779F052
:102BA00080932D0281E0809315070E946C0860934A
:102BB00011077093120780931307909314070895D9
:102BC000482F20910F0730E0C901019661E470E0C1
:102BD0000E94193990910E07981731F02A53394FF6
:102BE000F901408380930F0708958091190781119F
:102BF00009C085E00E94310421E0892B09F020E022
:102C0000822F089582E0F6CF80911907811109C0C3
:102C100082E00E94310421E0892B09F020E0822F1C
:102C2000089585E0F6CFCF93C091BA06C130D9F4AC
:102C30000E94F515882319F081E080930C0780919C
:102C40002302813471F4C150C23058F40E9404163A
:102C5000882339F00E94F515882319F081E08093CC
:102C6000BB06CF910895C23041F40E940416882318
:102C700031F381E080930D07E2CF0E940416882390
:102C8000B9F281E080930D07D3CF60E089E20C9424
:102C9000880480912B029FEF980F933008F083E017
:102CA00090913F07992369F0E0912C02E03148F4BC
:102CB000F0E0E15DF84F90812FEF290F233008F409
:102CC000892F089590911007981791F0809310071D
:102CD000882321F00E94491680930C020E946C0800
:102CE000609383067093840680938506909386068E
:102CF0000895CF93C82F6EEF82E899E00E9496095D
:102D00006EEF82E899E00E9496096091050282E8E0
:102D100099E00E9496096EE082E899E00E94960987
:102D20006C2F82E899E00E9496096DEF82E899E0A5
:102D30000E94960982E899E0CF910C94E3090F93E1
:102D40001F93CF93DF93EC0180E2689FF001112481
:102D5000EE59F84F6A8B80912E0290912F02A0912C
:102D60003002B09131028E879F87A88BB98B04897E
:102D7000158930E020E09801112700270F8B188F6C
:102D8000298F3A8F828D938DB0E0A0E0AC01BD0118
:102D9000402B512B622B732B4F8B588F698F7A8F5F
:102DA00083858871A9F4848D958DA68DB78D8B8BC5
:102DB0009C8BAD8BBE8B81E08D8381E08C831E82EA
:102DC0001F82188619861A861B861C861D8603C0DC
:102DD000803131F080E0DF91CF911F910F91089504
:102DE0009E012D5E3F4F8B8D9C8D0E94D10E8823BE
:102DF00089F384E0E1CFCF93DF93EC0160E08E8133
:102E00000E945A0461E08E810E945A0460E08E8123
:102E10000E945A048BE891E00197F1F7DF91CF917E
:102E20000895CF92DF92EF92FF920F931F93CF936B
:102E3000DF936C017C0187E0E80EF11CD0E0C0E07C
:102E4000062F10E0B8010C2E02C0759567950A9404
:102E5000E2F76170F70181917F010E945A04219687
:102E6000C430D10579F7C601DF91CF911F910F9141
:102E7000FF90EF90DF90CF900C94FB16CF92DF92F3
:102E8000EF92FF920F931F93CF93DF93EC01F62EF7
:102E9000642F8C810E945A048D818F3F19F060E06D
:102EA0000E945A040F2D10E08F8584FF25C06E010B
:102EB00087E0C80ED11CF12CE12CB8010E2C02C009
:102EC000759567950A94E2F76170F60181916F013B
:102ED0000E945A04FFEFEF1AFF0A88E0E816F10497
:102EE00061F7CE01DF91CF911F910F91FF90EF908D
:102EF000DF90CF900C94FB16B80184E07595679530
:102F00008A95E1F7CE010E9411176F2DCE01DF9156
:102F1000CF911F910F91FF90EF90DF90CF900C9485
:102F2000111740E0682F8EE29BE00C943E179091C1
:102F3000410B691710F06FEF690FE62FF0E0E25DCB
:102F4000F44F9489890F80680C94911781E00E9456
:102F500091178BE39FE10197F1F70895CF93DF93EA
:102F6000823029F490913D0B986090933D0B8093B3
:102F7000410B1092420B80E48093430B80E18093DD
:102F8000440B80E58093450B61E08091320B0E94F9
:102F900088048091330B8F3F19F061E00E94880410
:102FA00061E08091340B0E948804CEE2DBE09E0158
:102FB0002E523B4080913D0B84FD0BC084E090E09D
:102FC00021962817390744F461E08E810E94880415
:102FD000EECF88E090E0F4CF8BE39DE00197F1F72E
:102FE00060E08091320B0E945A0460E08091340BC3
:102FF0000E945A048091330B8F3F19F060E00E94C9
:103000005A0480913D0B84FD34C063E08EE29BE066
:103010000E941117CBE4D6E4CE010197F1F763E0EB
:103020008EE29BE00E9411172197F1F763E08EE298
:103030009BE00E94111783E592E00197F1F762E0AF
:103040008EE29BE00E94111780913D0B80620E94EE
:10305000911784E080933E0B8CE00E9491170E94B0
:10306000A61782E080933F0B86E0DF91CF910C940E
:10307000911780620E9491178BE496E40197F1F713
:1030800080913D0B80620E94911783E592E0019749
:10309000F1F780913D0B80620E949117D5CF41E0FE
:1030A0000E943E1781E090E00895CF93DF939091C6
:1030B0002207911107C0D82F80912307D03229F41D
:1030C000803188F0DF91CF910895803160F061E028
:1030D00080E00E94971762ED73E08EE29BE00E9411
:1030E000D20810922307C091230761E08C2F0E9421
:1030F00097176D2F8EE29BE00E944F18CF5FC09311
:103100002307E0CF0F931F93CF93DF93FC0104813C
:1031100015810115110539F4FB011082DF91CF9162
:103120001F910F910895415051094017510708F41C
:103130008A01EB01FC0160817181A801CE010E942E
:10314000D03BC00FD11F1882E9CFAF92BF92CF9270
:10315000DF92EF92FF920F931F93CF93DF9300D0F4
:1031600000D000D01F921F92CDB7DEB76C01FE01D8
:103170003196CE010C967F0120E22193E817F907E2
:10318000E1F7DA0120E037E09D91B92E9923A9F10A
:103190009E32B9F43A3091F480E02B960FB6F89451
:1031A000DEBF0FBECDBFDF91CF911F910F91FF907A
:1031B000EF90DF90CF90BF90AF90089528E03AE075
:1031C000E3CFE3EBF5E08491882321F03196981367
:1031D000FACFE2CF321700F38FED890F8E35E0F68C
:1031E0008FE9890F8A3118F440EEB42EB90EF70139
:1031F000E20FF11DB0822F5FC7CF8981803261F26B
:103200008B01FB01838D948DF601948F838FFB01DD
:1032100016821782108611861286138614861586EA
:10322000F80182859385A485B5854389548965898C
:10323000768984179507A607B70708F0ADCF25E074
:10324000B695A795979587952A95D1F7F82FFF7092
:10325000AF2EF8018581823008F49ECFC8010E940C
:103260003D1497FD99CFF80182859385A485B58596
:103270004F96A11DB11D82879387A487B587F0E281
:10328000AF9EB00111246E59784F6115710509F494
:1032900083CFFB018081882309F1853E19F4B110A9
:1032A00032C01EC04BE050E0C7010E949F3B892BFB
:1032B00009F0B6CF6A2DC6012B960FB6F894DEBF83
:1032C0000FBECDBFDF91CF911F910F91FF90EF9077
:1032D000DF90CF90BF90AF900C949F16B1105CCF51
:1032E000F601A28A80912E0290912F02A0913002C5
:1032F000B091310286879787A08BB18BFB018081CB
:10330000882309F449CFBB24B3948ACFCF93DF93AA
:10331000EC0188819981009711F00E94353A198259
:1033200018821D821C821B821A82DF91CF91089520
:10333000FC0180819181009711F00C94353A089539
:10334000FB0101900020E9F73197AF01461B570BB5
:10335000DC01ED91FC910280F381E02D1994CF9373
:10336000DF93682F8FE19AE00E94BD08EC016FEFB8
:1033700072E08FE19AE00E94A0198C0F9D1FDF91EF
:10338000CF910895CF93DF93BC018FE19AE00E9423
:10339000D208EC016FEF72E08FE19AE00E94A01971
:1033A0008C0F9D1FDF91CF9108958F929F92AF92C6
:1033B000BF920F931F93CF93DF93CDB7DEB7A19743
:1033C0000FB6F894DEBF0FBECDBF19A2423008F48D
:1033D0004AE08E010F5D1F4F842E912CB12CA12C41
:1033E000A50194010E942D39E62FB901CA01EA30E6
:1033F00004F5E05DD801EE938D01232B242B252BC2
:1034000079F790E080E0109729F0BD018FE19AE014
:103410000E94A019A1960FB6F894DEBF0FBECDBFD3
:10342000DF91CF911F910F91BF90AF909F908F90A0
:103430000895E95CDFCFEF92FF920F931F93CF9334
:1034400084E10E9431047C0185E20E9431048C01F8
:1034500085E10E943104C1E0892B09F0C0E0809130
:103460002A02882371F1809120078C17A1F08091A6
:103470005007882381F066EC73E08FE19AE00E94A8
:10348000D2086C2F70E090E080E04AE00E94D519ED
:103490008DE50E94AF19C093200710922107C0E06C
:1034A000EF28A1F00130110589F0C11102C0C091CF
:1034B00007078C2FCF911F910F91FF90EF900C94E5
:1034C0006216C093210710922007EACFC1E0F1CF26
:1034D000CF92DF92EF92FF92CF93C091B606809188
:1034E0002007813001F5CC23C1F060E088E20E9422
:1034F0005A0460E08FE10E945A0460E08DE00E946F
:103500005A0460E086E10E945A0460E089E10E946A
:103510005A041092B60610921007CF91FF90EF90C8
:10352000DF90CF9008950E946C086B017C01C4303D
:1035300008F04EC080911007C13008F487C0811197
:103540004DC18091830690918406A0918506B0912B
:103550008606B701A601481B590B6A0B7B0B8091AD
:10356000240290912502092E000CAA0BBB0B4817D0
:1035700059076A077B0788F2EC2FF0E0EE0FFF1F78
:10358000E75CFD4F60E080810E945A04C092830690
:10359000D0928406E0928506F092860680915007CC
:1035A000882391F06AE873E08FE19AE00E94D208E4
:1035B0006091B60670E090E080E04AE00E94D51984
:1035C00086E893E00E94C21984E08093B606A5CFF6
:1035D000C43009F47FC0C53009F09FCF80918306C5
:1035E00090918406A0918506B0918606B701A60148
:1035F000481B590B6A0B7B0B80911007882309F439
:1036000045C080911E0790911F07092E000CAA0B40
:10361000BB0B481759076A077B0708F47ECF61E0A8
:103620008FE10E945A04C0928306D0928406E092F1
:103630008506F092860684E08093B6068091500756
:10364000882309F46ACF8FEA93E019C0882309F42C
:1036500064CF61E088E20E945A04C0928306D0924F
:103660008406E0928506F092860685E08093B60691
:1036700080915007882309F450CF8AEB93E0CF91D3
:10368000FF90EF90DF90CF900C94C21980911A07B1
:1036900090911B07092E000CAA0BBB0B481759076A
:1036A0006A077B0708F439CF60E088E20E945A0479
:1036B000C0928306D0928406E0928506F092860638
:1036C0001092B60680915007882309F426CF83EA2A
:1036D00093E0D5CF80911007882309F44CC08091E6
:1036E000210781111ACF8091830690918406A091C1
:1036F0008506B0918606B701A601481B590B6A0BD7
:103700007B0B8091280290912902092E000CAA0BB4
:10371000BB0B481759076A077B0708F4FECEC09118
:103720000C02EC2FF0E0EE0FFF1FE75CFD4F61E0B5
:1037300080810E945A04C0928306D0928406E0924F
:103740008506F0928606C093B606809150078823BE
:1037500009F4E3CE6EE973E08FE19AE00E94D208AB
:1037600060910C0270E090E080E04AE00E94D51980
:103770008AE993E084CF8091830690918406A0919A
:103780008506B0918606B701A601481B590B6A0B46
:103790007B0B80911C0790911D07092E000CAA0B32
:1037A000BB0B481759076A077B0708F4B6CE60E0E1
:1037B0008FE10E945A04C0928306D0928406E09260
:1037C0008506F092860685E08093B60680915007C4
:1037D000882309F4A2CE8FE893E051CFC0928306EC
:1037E000D0928406E0928506F092860696CE2F92BD
:1037F0003F924F925F926F927F928F929F92AF9281
:10380000BF92CF92DF92EF92FF920F931F93CF93CD
:10381000DF938091060290910702019709F069C237
:10382000C0907F06D0908006E0908106F0908206DE
:10383000C114D104E104F104E1F00E946C086C1998
:103840007D098E099F0997FD14C010927F06109282
:103850008006109281061092820680ED97E0A0E02B
:10386000B0E08093010290930202A0930302B09310
:1038700004020E946C080091B2061091B3062091D8
:10388000B4063091B506601B710B820B930B00914F
:10389000010210910202209103023091040260178C
:1038A00071078207930768F083E00E9479160E94EF
:1038B0006C086093B2067093B3068093B40690933D
:1038C000B506D1E05DE0252E6CE0362E7BE0472E7C
:1038D000EAE05E2E09E018E0F7E0FF2EAEE0EA2E07
:1038E000B5E0DB2EC4E0CC2E82E899E00E945409BA
:1038F000181619060CF0CAC182E899E00E94320934
:10390000982F10927E06E0910002E150E031F0F431
:10391000F0E08827E157F34E8F4F0C946E399F1CCF
:10392000881D911DA61DAF1DBD1DC61DCD1DD41D1D
:10393000DB1DE21DE91DF01DF71DFD1D031E9E3F51
:1039400029F482E0809300029093740680917806B7
:10395000882329F0833019F0853009F05BC19091FC
:103960007E069D3F09F056C160907D0670907C06F2
:10397000C0917B06F0917A06E0917906A62DAF7092
:10398000B0E020E031EE45EF55E00E94FF384B01FA
:103990005C01A72DAF70B0E020E432E44FE050E0CE
:1039A0000E94FF38860E971EA81EB91E8E2F8F709C
:1039B000880E911CA11CB11C2C2F2F7030E0A0E1AF
:1039C000B7E20E940A39860E971EA81EB91E2F2F35
:1039D0002F7030E0A4E6B0E00E940A39860E971EF0
:1039E000A81EB91EA62DB0E084E0B595A7958A95CE
:1039F000E1F720E03AEC4AE95BE30E947D39860E6C
:103A0000971EA81EB91EA72DB0E094E0B595A79506
:103A10009A95E1F720E836E948E950E00E947D39BF
:103A2000860E971EA81EB91EAC2FB0E024E0B595F7
:103A3000A7952A95E1F720EA36E841E050E00E9498
:103A40007D39860E971EA81EB91EAF2FB0E034E058
:103A5000B595A7953A95E1F728EE33E00E947639BF
:103A6000860E971EA81EB91EAE2FB0E044E0B59595
:103A7000A7954A95E1F72AE030E00E947639860E54
:103A8000971EA81EB91E0E946C086093AE06709324
:103A9000AF068093B0069093B10610927E06109206
:103AA000780680913F07D0933F07882369F0809183
:103AB000870690918806A0918906B0918A0688159C
:103AC0009905AA05BB0501F18092870690928806A8
:103AD000A0928906B0928A06809150078823A1F0AF
:103AE0006BE773E08FE19AE00E94D208609187064D
:103AF000709188068091890690918A064AE00E941A
:103B0000D5198DE50E94AF1984E00E947916ECCE9C
:103B10009E3F09F03FC083E08093000290937506BA
:103B200015CF992331F0903E21F09E3011F0913F56
:103B300029F4C09200029093760608CF8091050286
:103B4000981328C086E080930002F5CF809105028B
:103B5000981320C0D092000290937706F7CE992355
:103B600011F0933019F41093000204C0943091F4D2
:103B7000E092000290937806E9CE992321F0903EDE
:103B800011F0913F39F4F0920002E6CF992359F3F6
:103B9000953049F3D0930002D9CE9A39D8F70093E3
:103BA000000290937906D2CE9A39A0F75092000283
:103BB00090937A06CBCE9A3968F7409200029093A0
:103BC0007B06C4CE9A3930F73092000290937C067F
:103BD000BDCE9A39F8F62092000290937D06B6CEBB
:103BE0009D3FC1F6D093000290937E06AFCE9331F5
:103BF00088F62FE020930002D4CF943058F680E16D
:103C000080930002D5CFD09300029D3FC1F2109265
:103C10007B069CCE843009F067CE80917B068D3F79
:103C200009F062CEC09179060E946C086093AE06DE
:103C30007093AF068093B0069093B10610927B0606
:103C40001092780680912C02C81709F44DCEC093CB
:103C50002C0280915007882309F446CE60E773E078
:103C60008FE19AE00E94D208C03128F460E38FE12E
:103C70009AE00E94BD086C2F70E090E080E040E187
:103C80000E94D5198DE50E94AF192ECE80913F0775
:103C9000882379F10E946C080091AE061091AF065E
:103CA0002091B0063091B106601B710B820B930B13
:103CB0006131774281059105E0F010923F078091D4
:103CC00050078823B1F088E593E0DF91CF911F91F1
:103CD0000F91FF90EF90DF90CF90BF90AF909F90AB
:103CE0008F907F906F905F904F903F902F900C94AB
:103CF000C219DF91CF911F910F91FF90EF90DF904C
:103D0000CF90BF90AF909F908F907F906F905F907B
:103D10004F903F902F900895CF92DF92EF92FF92B5
:103D200081E0809307070E9462160E946C086B0175
:103D30007C019091B60680910C029817F1F00E94D8
:103D4000F71B0E941B1A0E94681A8091170788238C
:103D500041F01092070780E0FF90EF90DF90CF9046
:103D600008950E946C086C197D098E099F09613DB8
:103D7000774081059105E8F2ECCF0E946C086B0159
:103D80007C010E946C08AB01BC014C195D096E09F5
:103D90007F098091260290912702092E000CAA0B20
:103DA000BB0B481759076A077B0778F40E941B1A58
:103DB0000E94681A809117078111CBCF9091B606A7
:103DC00080910C029817E9F2C4CF81E0C5CF4F92E1
:103DD0005F926F927F928F929F92AF92BF92CF929B
:103DE000DF92EF92FF921F93CF93DF9300D000D02A
:103DF000CDB7DEB76B017C010E94150869837A8319
:103E00008B839C83A1E2B0E0A70196010E94FF385A
:103E10002B013C0111E00E9415084B015C01298136
:103E20003A814B815C81821A930AA40AB50A8C14E8
:103E30009D04AE04BF0440F50E94F71B0E941B1AAC
:103E40000E94681A3091BA063D83311133C00E9436
:103E5000131680911707811117C08091C506823013
:103E6000D1F60E94041681110CC00E94F515811133
:103E700008C080910D07811104C080910C07882330
:103E800051F281E08093C40626960FB6F894DEBF07
:103E90000FBECDBFDF91CF911F91FF90EF90DF90CC
:103EA000CF90BF90AF909F908F907F906F905F90DA
:103EB0004F9008950E9404168E830E94F515E82FF6
:103EC00080912302813431F44E81442319F0E111B1
:103ED0001093BB06A4E6B0E0A50194010E94FF3850
:103EE0006415750586059705A0F05D81513031F4A4
:103EF000EE2309F4AECF50930C07ABCF8D81823007
:103F000009F0A7CF2E81222309F4A3CF10930D0728
:103F1000A0CF3E81332309F49CCFEE2309F499CF3F
:103F200010920D0710920C0794CFBF92CF92DF92A0
:103F3000EF92FF920F931F93CF93DF93D82F20918F
:103F40001C0230911D0240911E0250911F02A8EEEA
:103F5000B3E00E94FF386B017C0161E089E20E94BE
:103F600088046091180789E20E945A04C701B601CB
:103F70000E94E71EC5E0BB24B3940D2F10E06091B2
:103F80001807D0FD6B2589E20E945A041595079504
:103F9000D02FC701B6010E94E71EC15071F7609192
:103FA000180781E0682789E20E945A04A3E0B0E084
:103FB000A70196010E94FF3896958795779567959A
:103FC000DF91CF911F910F91FF90EF90DF90CF90F5
:103FD000BF900C94E71E1F93CF93DF93182F8FE9A8
:103FE000810FE0EEE10F8A3108F0E12FEA50E13570
:103FF00008F0B7C00E2E000CFF0B8827ED5FFF4DB9
:104000008F4F0C946E399020B120B120B520B12093
:10401000B120B120B120B120B120B120B120B12018
:10402000B120B120B120B120B120B120B120B12008
:10403000B120B820B120B120B120B120B120B120F1
:10404000542066206320B120B1205D206F206020C5
:104050005A208D208A208720842081207E207B206A
:104060007820752072206920B120B1205720B1201E
:104070006C20B120F320F120EF20EC20EA20E72093
:10408000E420E120DF20DC20DA20D820D620D42054
:10409000D220D020CE20CC20CA20C820C620C420C8
:1040A000C220C020BE20BB20C1E0D5E03BC0C1E0A3
:1040B000DEE138C0C1E0DDE135C0C1E0DCE032C0A6
:1040C000C1E0DCE12FC0C1E0D2E12CC0C1E0DFE003
:1040D00029C0C1E0DEE026C0C1E0D9E123C0C1E0D3
:1040E000D3E020C0C1E0D8E11DC0C1E0D6E01AC0D5
:1040F000C1E0D7E017C0C1E0D5E114C0C1E0D0E114
:1041000011C0C1E0DAE00EC0C1E0D1E00BC0C1E0F7
:10411000D3E108C0C1E0D7E105C0C1E0D6E102C0EB
:10412000C0E0D2E00E948C1E8823D9F08091B906AD
:104130008C1739F08FE1C1118BE10E94951FC0935C
:10414000B9068D2F0E94951F812F0E9455180E943D
:104150006C08609308077093090780930A0790938F
:104160000B07DF91CF911F910895C0E0D8E0DACF1F
:10417000C0E0D4E0D7CFC0E0D1E1D4CFC0E0BCCF25
:10418000C0E099CFC0E0C4CFC0E092CFC0E0B1CFD3
:10419000C0E0B5CFC0E089CFC0E0B4CFC0E0BBCFB6
:1041A000C0E0BCCFC0E09FCFC0E088CFC0E089CFE7
:1041B000C0E08ACFC0E08BCFC0E0DBE0B3CFC0E08F
:1041C00095CFC0E0D4E1AECFC0E0DAE1ABCFC0E044
:1041D000DDE0A8CFC0E099CFC0E0D9E0A3CFC0E038
:1041E00079CFC0E07ACFC0E07BCF90913F07992391
:1041F00031F090912C02943021F0983011F00C9411
:1042000055189B7F9330D9F30C94EB1F8F929F929C
:10421000AF92BF92CF92DF92EF92FF920F931F93D4
:10422000CF93DF93182F062F20912D0230E050E01E
:1042300040E060EB74E080E090E00E942D3969017D
:104240007A0149015A01113031F0A3E0B0E00E9437
:10425000FF384B015C011093BA06002341F061E086
:104260008BE00E945A0461E08CE00E945A04C091E5
:104270002102D0912202209761F480913F07882388
:1042800071F080912C02843011F0883041F4C8E53F
:10429000D2E040E050E0BA01CE010E94C404A8EE92
:1042A000B3E09401A5010E94FF380E94E71E00239D
:1042B00041F060E08BE00E945A0460E08CE00E94D4
:1042C0005A04CD2B19F084E00E947808A8EEB3E0E0
:1042D000A70196010E94FF380E94E71E1092BA06BD
:1042E0008091C506813061F52091C0063091C106EC
:1042F0004091C2065091C306AAE0B0E00E94FF3888
:10430000610F711D811D911D6093C0067093C106E0
:104310008093C2069093C3060E946C08CC0CDD1CEF
:10432000EE1CFF1CC60ED71EE81EF91EC092BC066E
:10433000D092BD06E092BE06F092BF0610921B021C
:1043400010931A020E946C08609308077093090783
:1043500080930A0790930B07DF91CF911F910F91E4
:10436000FF90EF90DF90CF90BF90AF909F908F9095
:104370000895FC0180819181009711F00C94AD3873
:1043800060E070E0CB010895FC0124813581232B8E
:1043900039F421E0FB018081882349F020E007C047
:1043A000808191810E94C03B21E0892BB9F7822F47
:1043B00008953F924F925F926F927F928F929F9259
:1043C000AF92BF92CF92DF92EF92FF920F931F9323
:1043D000CF93DF93CDB7DEB7A1970FB6F894DEBFCA
:1043E0000FBECDBFC82E90914B076CE3D62E9130F7
:1043F00031F04DE3D42E923011F05CE7D52E3090A1
:10440000460719823DE3F32E911102C020E2F22EFD
:104410008E010F5F1F4F86E1831508F4DFC1E32D86
:10442000F0E08827E95EFD4D8F4F0C946E392E2207
:10443000522262226222682280228722E222E52220
:10444000EE22F92204230F231A232523302382236B
:104450008B239823A623BC23D023DE2344E150E002
:10446000B80187E09BE00E948218F80101900020CB
:10447000E9F731973E2F301B3D3008F03CE0DE017C
:104480005596C8017D01282F201B231708F4A9C1C8
:10449000D701A30FB11D80E23C3009F4A7C18D9371
:1044A0003F5FFACF89E393E09F938F9382E493E099
:1044B0009F938F931F9284E18F931F930F930E947A
:1044C000DF3B7AC068E473E0C8010E94C93BCDCFEE
:1044D00080910B028F9380910A028F938091090241
:1044E0008F93809108028F938FE493E09F938F9333
:1044F0001F9284E18F931F930F930E94DF3B5CC058
:10450000809105021F928F9388E593E0D1CF80912F
:104510003F07882369F04090870650908806609096
:10452000890670908A06411451046104710419F4DB
:1045300064E673E0C9CFC301B20124E630E040E095
:1045400050E00E942D39CA01B9012AE030E040E074
:1045500050E00E942D399F938F937F936F9388EE45
:10456000882E83E0982EA12CB12CC301B201A501A5
:1045700094010E942D39CA01B901A50194010E943C
:104580002D399F938F937F936F93C301B20120E4E2
:1045900032E44FE050E00E942D395F934F933F93F8
:1045A0002F9382E793E09F938F931F9284E18F93E1
:1045B0001F930F930E94DF3B0FB6F894DEBF0FBE30
:1045C000CDBF53CF64E873E07FCF80912A021F9262
:1045D0008F931F92FF928EE893E088CF80911F0700
:1045E0008F9380911E078F931F92FF9288E993E02B
:1045F0007DCF809129028F93809128028F931F9203
:10460000FF9283EA93E072CF809127028F9380918B
:1046100026028F931F92FF928DEA93E067CF8091DD
:1046200025028F93809124028F931F92FF9288EB33
:1046300093E05CCF80911D078F9380911C078F932F
:104640001F92FF9283EC93E051CF80911B078F93D1
:1046500080911A078F931F92FF928DEC93E046CFC3
:10466000E0903F07923091F4EE2069F0E0912C0247
:10467000E03148F4F0E0E15DF84F80811F928F93C4
:1046800088ED93E015CF80912B02F8CF0E94491658
:10469000EE2019F1E0912C02E03150F4F0E0E15D00
:1046A000F84F90819150EE24E394933008F4E12C7C
:1046B0009091B60622E033E0911102C021E033E090
:1046C0004F2D0F2C000C550BEE2051F05F93FF92F5
:1046D0003F932F938FED93E009CFEE24E394E8CF3F
:1046E0001F928F935F93FF923F932F9388EE93E0F7
:1046F0009F938F931F9284E18F931F930F930E9438
:10470000DF3B5ACF80912D021F928F931F92FF9211
:1047100082EF93E0EBCE80912302282F082E000C2D
:10472000330B3F938F931F92FF928AEF93E0DECE7D
:1047300080911907882341F082E51F928F931F9281
:10474000FF9283E094E0D2CE8EE4F7CF80912102F5
:10475000909122022F2D0F2C000C330B009729F47F
:104760003F93FF928BE094E0A3CE9F938F933F9370
:10477000FF9285E194E0BACE209120028F2D0F2C7C
:10478000000C990B2D3229F49F93FF9280E294E064
:104790008FCE1F922F939F93FF928EE294E0A6CE2E
:1047A00080911807882341F082E51F928F931F9212
:1047B000FF9289E394E09ACE8EE4F7CF8091500780
:1047C000882349F086E093E09F938F931F92FF9296
:1047D00081E494E08BCE8AE893E0F6CF6BE474E05A
:1047E00073CEFC012191CF012D934DCE19A2FFE094
:1047F0003F1215C084E10E943104892B51F586E4F3
:104800008E8F85E10E943104892B29F589E48F8FF1
:1048100085E20E943104019701F580E588A390911B
:104820002C026CE176E09F3F11F1993008F08FC0C7
:10483000E92FF0E08827E05EFB4D8F4F0C946E3936
:104840002F24682471247A2483248C24A72495247B
:104850009E2486E6D5CF89E6DACF80E7DFCF809148
:104860003F0765ED74E0811102C069E073E0C801A3
:104870000E94C93BC1107EC060E976E0C7010E947A
:10488000C03B892B09F076C080918F068D1183C0C3
:104890006BE876E0C8010E94C03B892B09F089C013
:1048A000A1960FB6F894DEBF0FBECDBFDF91CF91BA
:1048B0001F910F91FF90EF90DF90CF90BF90AF903E
:1048C0009F908F907F906F905F904F903F90089552
:1048D00080913F0760EE74E08111C9CF6DE073E015
:1048E000C6CF80913F0761E173E08111C0CF65E1E0
:1048F00073E0BDCF80913F0769E173E08111B7CFCD
:104900006DE173E0B4CF80913F0761E273E0811104
:10491000AECF65E273E0ABCF80913F0769E273E011
:104920008111A5CF6DE273E0A2CF80913F0765E1D1
:1049300075E081119CCF61E373E099CF80913F07CF
:1049400060E275E0811193CF65E373E090CF1F9231
:104950009F938DE494E09F938F931F9284E08F93B5
:104960001F930F930E94DF3B0FB6F894DEBF0FBE7C
:10497000CDBF80CF60E080E00E949717B7018EE244
:104980009BE00E94A019B70180E996E00E94C93B14
:10499000CC2009F479CF60E08CE00E9497176D2D50
:1049A0008EE29BE00E94BD08D0928F06CC2009F4D5
:1049B0006FCF60E08DE00E949717B8018EE29BE018
:1049C0000E94A019B8018BE896E00E94C93B68CF0D
:1049D0000F931F93CF93DF93EC0188819981009708
:1049E00059F02A813B812617370730F081E0DF91AB
:1049F000CF911F910F9108958B016F5F7F4F0E94A0
:104A0000BE3A009759F0998388831B830A832C81CF
:104A10003D81232B59F7FC011082E8CF80E0E7CFDE
:104A2000EF92FF920F931F93CF93DF936115710560
:104A300041F480E0DF91CF911F910F91FF90EF90B3
:104A4000089541155105B1F07B01EC010C811D81E8
:104A5000040F151FB8010E94E824882351F3288110
:104A600039818C819D81B701820F931F0E94C93BC0
:104A70001D830C8381E0DECFEF92FF920F931F9393
:104A8000CF93DF93EC017B018A01BA010E94E824F5
:104A900081110BC0CE010E948619CE01DF91CF910A
:104AA0001F910F91FF90EF9008951D830C83B70124
:104AB000888199810E94C93BF0CFFC01118210824C
:104AC0001382128215821482FB0101900020E9F703
:104AD0003197AF01461B570B0C943C25EF92FF9288
:104AE0000F931F93CF93DF93EC017B018A011B820D
:104AF0001A8288EE93E0A0E0B0E08C839D83AE83C1
:104B0000BF8385EE92E0998388838DE190E00E94D7
:104B100099399A8F898F009779F02DE1F701DC019F
:104B200001900D922A95E1F74CE050E0B801CE01DA
:104B30000C960E94D03B188EDF91CF911F910F9160
:104B4000FF90EF9008951F93CF93DF93EC01162F02
:104B50000E94E938181739F0612FCE01DF91CF910B
:104B60001F910C94F138DF91CF911F9108950C940F
:104B7000E9381F920F920FB60F9211242F933F9393
:104B80008F939F93AF93BF9380915707909158074E
:104B9000A0915907B0915A073091560723E0230F8F
:104BA0002D3758F50196A11DB11D2093560780930E
:104BB000570790935807A0935907B0935A078091CD
:104BC0005B0790915C07A0915D07B0915E0701962D
:104BD000A11DB11D80935B0790935C07A0935D07B7
:104BE000B0935E07BF91AF919F918F913F912F91AD
:104BF0000F900FBE0F901F90189526E8230F029676
:104C0000A11DB11DD2CF1F920F920FB60F9211248A
:104C10000BB60F922F933F934F935F936F937F93B6
:104C20008F939F93AF93BF93EF93FF9380917609F8
:104C300090917709A0917809B0917909892B8A2BF5
:104C40008B2BE1F190916509E0916609F09167097C
:104C50008081892780838091760990917709A0913E
:104C60007809B0917909181619061A061B069CF4E2
:104C70008091760990917709A0917809B09179098E
:104C80000197A109B1098093760990937709A093C0
:104C90007809B0937909FF91EF91BF91AF919F91FE
:104CA0008F917F916F915F914F913F912F910F90D5
:104CB0000BBE0F900FBE0F901F901895809132027F
:104CC0000E947808E8CF1F920F920FB60F9211241E
:104CD0000BB60F922F933F934F935F936F937F93F6
:104CE0008F939F93AF93BF93EF93FF9382E899E0E5
:104CF0000E947409FF91EF91BF91AF919F918F91A5
:104D00007F916F915F914F913F912F910F900BBECB
:104D10000F900FBE0F901F9018951F920F920FB615
:104D20000F9211240BB60F922F938F939F93EF93B3
:104D3000FF93E0919209F09193098081E0919809A5
:104D4000F091990982FD1DC0908180919B098F5F30
:104D50008F7320919C09821741F0E0919B09F0E04C
:104D6000EE57F64F958F80939B09FF91EF919F919E
:104D70008F912F910F900BBE0F900FBE0F901F9031
:104D800018958081F2CF1F920F920FB60F921124C7
:104D90000BB60F922F933F934F935F936F937F9335
:104DA0008F939F93AF93BF93EF93FF938FE19AE01D
:104DB0000E947409FF91EF91BF91AF919F918F91E4
:104DC0007F916F915F914F913F912F910F900BBE0B
:104DD0000F900FBE0F901F9018951F920F920FB655
:104DE0000F9211240BB60F922F938F939F93EF93F3
:104DF000FF93E0912F0AF091300A8081E091350A0B
:104E0000F091360A82FD1DC090818091380A8F5F33
:104E10008F732091390A821741F0E091380AF0E04F
:104E2000E15EF54F958F8093380AFF91EF919F9146
:104E30008F912F910F900BBE0F900FBE0F901F9070
:104E400018958081F2CFCF92DF92EF92FF92E2E845
:104E5000F9E01382128288EEC82E83E0D82EE12C6E
:104E6000F12CC482D582E682F78287EC92E09183AE
:104E7000808325ED30E03587248724ED30E03787C7
:104E8000268720ED30E0318B208B21ED30E0338B15
:104E9000228B22ED30E0358B248B26ED30E0378BF2
:104EA000268B118E128E138E148EEFE1FAE0138290
:104EB0001282C482D582E682F7829183808385EC58
:104EC00090E09587848784EC90E09787868780ECD4
:104ED00090E0918B808B81EC90E0938B828B82ECC5
:104EE00090E0958B848B86EC90E0978B868B118E6F
:104EF000128E138E148EECEBFAE080E58083118223
:104F0000EEEBFAE0158216821186138682E090E0BD
:104F1000A0E0B0E084879587A687B78713A215A67F
:104F200014A689ED92E093A782A717A6EEE2FBE014
:104F30001382128287EF92E09183808388E38483D7
:104F40008FEF858383E0868386E0878387E0808791
:104F500088E0818789E08287138614861586168605
:104F6000178681E00E94AE1763E574E088E29BE05B
:104F70000E945D25EDE0FBE013821282C482D5829F
:104F8000E682F78285EE92E091838083128E118E05
:104F900014866BE574E087E09BE0FF90EF90DF9074
:104FA000CF900C945D25CF93DF93CDB7DEB7CE576E
:104FB000D1090FB6F894DEBF0FBECDBF789484B58B
:104FC000826084BD84B5816084BD85B5826085BD05
:104FD00085B5816085BD80916E00816080936E0093
:104FE0001092810080918100826080938100809185
:104FF0008100816080938100809180008160809336
:1050000080008091B10084608093B1008091B000F5
:1050100081608093B00080919100826080939100C4
:1050200080919100816080939100809190008160D7
:10503000809390008091A10082608093A100809174
:10504000A10081608093A1008091A0008160809385
:10505000A000809121018260809321018091210133
:1050600081608093210180912001816080932001E3
:1050700080917A00846080937A0080917A008260C7
:1050800080937A0080917A00816080937A00809189
:105090007A00806880937A001092C10040E052EC60
:1050A00061E070E08FE19AE00E946A0382E00E9472
:1050B000AE176E012EE1C20ED11C6DE674E0C60182
:1050C0000E945D251A8219821C821B821E821D820B
:1050D0006E8D7F8D6115710531F04AA15BA1CE0106
:1050E00001960E943C2548E050E069E373E0CE0160
:1050F00001960E941025811104C0CE0101960E94E4
:1051000086191CAE1BAE1EAE1DAE21961FAE1EAE86
:10511000219769817A816115710531F04D815E8138
:10512000CE01CB960E943C25CE0101960E94981993
:10513000C6010E94981921962EAD3FAD219780E1BE
:1051400090E0821B930B9695879560E00E949717DD
:10515000BE01655C7F4F8EE29BE00E94C40864EF55
:1051600071E080E090E00E943A080E94A617CE010C
:10517000CB960E94981980E794E00E94C21960E0E3
:105180008BE30E94880461E08BE30E945A0461E093
:1051900085E30E94880461E080E00E9497178BE31A
:1051A0000E94FE07813891050CF49CC26FE574E003
:1051B0008EE29BE00E94D2088FE494E00E94C21924
:1051C00068EE73E080E090E00E943A0861E080E0E1
:1051D0000E9497176EE374E08EE29BE00E94D20873
:1051E00082E894E00E94C21940910802509109029D
:1051F00060910A0270910B0282E899E00E946A03B2
:105200000E946C08605D7740810991096093B20645
:105210007093B3068093B4069093B5060E946C0811
:105220006093AE067093AF068093B0069093B1067C
:1052300084E994E00E94C21961E08DE00E94880434
:1052400060E08DE00E945A0461E086E10E948804DB
:1052500060E086E10E945A0461E089E10E948804CE
:1052600060E089E10E945A0461E08FE10E948804B5
:1052700060E08FE10E945A0461E088E20E948804A5
:1052800060E088E20E945A0462E085E10E9488049E
:1052900062E084E10E94880460E085E20E94880464
:1052A00061E08BE10E94880460E08BE10E945A0477
:1052B000EFE2F7E08FE397E02FEF21938E179F0740
:1052C000E1F78091140280932F078091130280935D
:1052D00030078091120280933107809111028093F0
:1052E0003207809110028093330780910F028093E0
:1052F000340780910E028093360780910D028093CF
:10530000370780912B028150833018F083E080931F
:105310002B0280912B0280930C021092B606109201
:1053200010078AED94E00E94C21962E082E00E94B8
:10533000880462E085E00E94880461E08BE00E94BE
:10534000880460E08BE00E945A0461E08CE00E94D7
:10535000880460E08CE00E945A0481E090E00E94A2
:10536000B7258F3F09F082C78091190280932D02E3
:1053700082E090E00E94B7258F3F09F07FC78091BF
:1053800018028093230283E090E00E94B7258F3FAC
:1053900009F07AC78091B8068093190784E090E0FD
:1053A0000E94B725182F85E090E00E94B725982F1E
:1053B000812F8F3F980721F4809116029091170258
:1053C000909322028093210286E090E00E94B7250C
:1053D0008F3F09F060C7809115028093200287E01B
:1053E00090E00E94B7258F3F09F063C78091B70610
:1053F00080931807209120022D3209F461C730E014
:1054000050E040E068EE73E080E090E00E942D39CB
:1054100020931C0230931D0240931E0250931F02E2
:105420000E9445166AEF70E080E090E00E943A0822
:1054300010920E0710920F07109223071092C006C9
:105440001092C1061092C2061092C30681E08093AA
:105450001B026FEC74E08FE19AE00E94D208609129
:105460002D0270E090E080E04AE00E94D51968ECDF
:1054700074E08FE19AE00E94D208609123028FE1EC
:105480009AE00E94BD0862EC74E08FE19AE00E940D
:10549000D2088091190762E5811101C06EE48FE1A5
:1054A0009AE00E94BD086BEB74E08FE19AE00E94E5
:1054B000D208609121027091220290E080E04AE0DF
:1054C0000E94D51962EB74E08FE19AE00E94D20845
:1054D0006091200270E090E080E04AE00E94D519DF
:1054E0006AEA74E08FE19AE00E94D208809118077E
:1054F000882309F4EAC682E50E94AF1988EE94E099
:105500000E94C21960E087E30E94880460E084E2A0
:105510000E94880461E084E00E94880490E080E0BA
:105520000E94B725873108F080E0809346071092EB
:105530004B070E94A61781E00E94D9210E946C08A7
:1055400060935207709353078093540790935507C5
:1055500070EB472E74E0572E612C712CE7E12E2E54
:10556000312C0E94F71B0E941B1A0E94681A80911E
:105570001707882379F11092170710920E071092DF
:105580000F0710920C0710920D071092BB06109295
:10559000C0061092C1061092C2061092C30681E0A6
:1055A00080931B021092BA061092C5061092B9069B
:1055B00060E08BE00E945A0460E08CE00E945A0494
:1055C0000E94451684E00E9478081092070780E048
:1055D0000E94621680911607882329F01092160700
:1055E00081E00E94E0150E94131680910D07811141
:1055F00004C090910C07992311F110920E0710929C
:105600000F07882309F463C680910C07882329F0CB
:1056100080911A02813009F45AC610920D0711E0E8
:1056200080913F07882309F457C680912C028B7F15
:10563000833009F050C60E948C1E81114DC6C09067
:10564000C006D090C106E090C206F090C306C11417
:10565000D104E104F10411F40C942A3810912D02C4
:105660000E946C088090BC069090BD06A090BE067B
:10567000B090BF06681579058A059B0508F488C6B1
:1056800083E4F9E4CF16F8E0DF06E104F10409F45D
:1056900054C60CF038C784E433EDC316D104E104DA
:1056A000F10409F44AC60CF0C8C68EE455E1C516EB
:1056B000D104E104F10409F440C60CF094C684E579
:1056C00092E0C916D104E104F10409F436C60CF0E5
:1056D00025C685E4CA94CD28CE28CF2809F42DC646
:1056E0008AE22BC68091ED0A882321F088EE9AE0A9
:1056F0000E94C8111092C90A1092C70A1092C40AD7
:105700001092C30A85E38093C20A0E946C088B0141
:1057100061E08091C20A0E94880461E08091C20A1F
:105720000E945A04FFB6F8948091A306811127C005
:10573000E8E5F6E08491E8EFF5E09491E82FF0E0F9
:10574000EE0FFF1FE75CFA4FA591B491EC91E923AE
:1057500021F461E085E30E945A0461E085E30E9440
:1057600088048CB580618CBD8CB580648CBD61E093
:1057700084E30E94880461E083E30E9488048091AE
:10578000A3068F5F8093A306FFBE82E58093BC0AC9
:105790001092BD0A8091BC0A9091BD0A0E94660ACF
:1057A0002AE0F22E8FEF0E94410AFA94F110FACF0C
:1057B0008EEB9AE00E94690A20E030E0A90160E0E7
:1057C0008EEB9AE00E947F0AF82E8093C80A31E09F
:1057D000831729F10E946C08601B710B613D7740B3
:1057E00058F381E08093C30A8EEB9AE00E94360A58
:1057F0006DE274E08EE29BE00E94D20880E294E0C9
:105800000E94C21968EE73E080E090E00E943A08BE
:1058100061E080E00E9497176FE074E0DDCC2AEA37
:1058200031E040E050E068E08EEB9AE00E947F0AB1
:1058300082FF2AC0F092C90A8091C90A812C912C5A
:105840005401823029F4812C912CA12C80E4B82EB3
:1058500020E030E0A90167E38EEB9AE00E947F0A26
:10586000A501940169E28EEB9AE00E947F0A809381
:10587000C80A8823D1F00E946C08601B710B613D3F
:10588000774030F388E0AECF94E0F92E0E94480ACA
:105890008093C80AFA94F110F9CF8A3A11F082E0A5
:1058A000A1CF82E08093C90AC7CF8091C90A823014
:1058B000D1F420E030E0A9016AE38EEB9AE00E9487
:1058C0007F0A882311F086E08DCF0E94480A807CF1
:1058D000803C19F483E08093C90A0E94480A0E9420
:1058E000480A0E94480A8EEB9AE00E94360A80E538
:1058F0008093BC0A1092BD0A81E00E94850C882327
:1059000009F4D1C088EE9AE00E943C0F882309F484
:105910006FCF4AE050E064EA76E088E29BE00E94C4
:1059200082181EAE1DAE89ED92E09CAF8BAF219622
:105930001FAE219719A218A29F8F8E8F1BA2712CC8
:10594000612CCE01CB965C01A8EEEA2EAAE0FA2EDD
:10595000B9ED8B2EB2E09B2E872D962DFC01EC55D8
:10596000F94F20812F3209F40196DC01AC55B94F73
:10597000FE01E85AFF4F30E020E08F014D914F3299
:1059800049F0442339F001962F5F3F4F41932C306B
:105990003105A1F7200F311FD9011C92FC01EC55F4
:1059A000F94F20812F3209F40196782E692E8C55FB
:1059B000994FFC0150801C821B829A8289821E8230
:1059C000A801B701CE0101960E94A518882311F401
:1059D0000C941238CE0101960E94C81151106AC071
:1059E000E8EEEE16EAE0FE0619F0C7010E94C811C3
:1059F00063EE73E08EE29BE00E94D20868E27BE0F7
:105A00008EE29BE00E94C40861E073E0CE018758FB
:105A10009F4F0E945D2564E170E0CE0187589F4F43
:105A20000E94E82461E073E0CE018D589F4F0E94F0
:105A30005D256AE070E0CE018D589F4F0E94E824FA
:105A400019A218A289ED92E09F8F8E8F1BA21C8253
:105A50001B829A8389831E82C6010E943C0F9E018D
:105A60002F5F3F4F59013601F4EAEF2EF6E0FF2E8B
:105A70006FE270E0C7010E94B53B009709F49CC03B
:105A8000D7012C912F3209F051C0BFEFEB1AFB0A5E
:105A90009A2D8B2D5301692E782E962D872D350149
:105AA000A92EB82EE5CF80E00E94850C882309F44A
:105AB0009FCE28CFD50115968C9181110C94453835
:105AC000A801B701C5010E94A518182FB8EEEB1662
:105AD000BAE0FB0611F40C941E38C7010E94C811ED
