:100000000C9420040C9451040C9451040C9451044D
:100010000C9451040C9451040C9451040C9451040C
:100020000C9451040C9451040C9451040C945104FC
:100030000C9451040C946C450C9451040C94510490
:100040000C9451040C9451040C9451040C945104DC
:100050000C9451040C9451040C9451040C942245BA
:100060000C9451040C9456460C942C460C94510458
:100070000C9451040C9451040C9451040C945104AC
:100080000C9451040C9451040C9451040C9451049C
:100090000C9451040C9451040C9451040C9451048C
:1000A0000C9451040C9451040C9451040C9451047C
:1000B0000C9451040C9451040C9451040C9451046C
:1000C0000C9451040C9451040C9451040C94F64576
:1000D0000C94CC450C9451040C9451040C94510490
:1000E0000C9451040C94271A0C9473280C94D64346
:1000F0000C94E8430C9425210C9410170C9499430C
:100100000C94C50B0C94BC190C94E0160C94D228DA
:100110000C94D5580C94D9430C94A6280C94B95936
:100120000C94BD280C9484430C943B0B0C94FB2042
:100130000C942D590C9456390C944A320C94882AFC
:100140000C94BE3A0C94A5430C946C180C947F3913
:100150000C941C590C94E0580C94F51B0C94E05A28
:100160000C94EA210C94AA390C94EB580C947B055E
:100170000C945D3B0C940D2A0C947B280C94CA398A
:100180000C94231A0C949C430C94CE590C943E3C32
:100190000C94C93A0C94B33A0C94593C0C94F24325
:1001A0000C94C4590C94E0570C946F590C948A43E6
:1001B0000C943B1A0C9411440C94EC430C94923A1A
:1001C0000C9475430C94F1580C94151E0C947243C6
:1001D0000C94DA280C94E8580C9481050C94DC20DB
:1001E0000C944E0A0C9477050C9473050C94ED282E
:1001F0000C94C4280C9480050C94D3430C94F043C5
:100200000C948D430C947E430C94C60B0C94F843D1
:100210000C94B4590C9446050C94503C0C94E04357
:100220000C946B3C0C946F270C948F280C94EE4329
:100230000C945F050C94323A0C944E050C940844CF
:100240000C94B6280C942B1A0C94FD430C946D1E40
:100250000C94C9590C9481430C940D440C94E728D8
:100260000C948C460C94E6430C945B050C94AB43C5
:100270000C94A8430C94EE0A0C94073C0C949D3A01
:100280000C94D43A0C94E4430C94DC430C94C618BC
:100290000C94DC0B0C947B430C944F3B0C94550555
:1002A0000C9470140C9490430C9498280C94423B3A
:1002B0000C948D390C94FF430C94B63B0C94A83AE3
:1002C0000C94A2430C9400170C94CF430C94621826
:1002D0000C9402440C94843B0C94A83B0C94302D59
:1002E0000C94E1280C9452050C94BB390C947B0AB5
:1002F0000C9478430C9469050C94AE430C94AF288D
:100300000C94421A0C944A050C942D170C948743B4
:100310000C94473C0C943E590C9405440C94CB2807
:100320000C949E0A0C94743C0C94F4580C94D1399F
:100330000C94081E0C94230D0C94DE430C946D0554
:100340000C940A440C94393B0C940F440C94623C7A
:100350000C94AF570C9465050C94951F0C9466593A
:100360000C9440050C94B2190C94FA430C947D3C07
:100370000C9485050C94EA430C948A0A0C94AC0AFC
:100380000C9437590C94893A0C94F6430C94EE581B
:100390000C9491590C949F430C94AB590C94761681
:1003A0000C94E2430C9493430C94E5580C94F4435E
:1003B0000C9448230C94D7160C9496434574683AD1
:1003C000206C696E6B206C6F7374004574683A2002
:1003D00044484350206661696C206F6E2072656CE2
:1003E000696E6B0045746865726E65742049503A99
:1003F00020004574683A206C696E6B207570005B54
:10040000434956207761746368646F673A206E6F62
:1004100020646174615D005B434956206D6F6465C3
:100420003D005B43495620667265713D0054727809
:100430004E657420626567696E3A20002D4C5D0040
:100440005B505454005B5054542050412D4C5D007F
:100450002D485D005B505454005B5054542053456C
:10046000512D4C5D005B5054542050412D485D008F
:100470005B505454205345512D485D005B496E74C8
:1004800065726C6F636B3D002020202020202020AF
:100490002020202020202020006C6F6164656420D3
:1004A000002020202020202020202020202020206C
:1004B0002000206D697373696E6700206D69737326
:1004C000696E67200020202020202020202020206E
:1004D000202020202000534420696E69742066612A
:1004E000696C00534420696E6974206661696C20F0
:1004F000202020002020202020202020202020201C
:10050000202020200053442063617264206D6973B1
:1005100073696E670053442063617264206D697370
:1005200073696E6720002D2D2D20534420434F4EBC
:10053000464947202D2D2D0045746865726E6574FF
:100540002049503A200049502061646472657373F9
:100550003A0044484350206661696C004574686500
:10056000726E65743A2044484350206661696C009D
:100570004574683A206E6F206C696E6B0045746834
:1005800065726E65743A206E6F206C696E6B004503
:1005900074683A2077616974696E672E2E2E004E5A
:1005A00065742D49443A2000455448206D6F6475A8
:1005B0006C65206E2F61202000455448206D6F64CB
:1005C000756C65206E6F742070726573656E740053
:1005D0004574683A2064697361626C656420202008
:1005E0000045746865726E65742064697361626C3D
:1005F000656420696E20636667002D2D2D204554AB
:100600004845524E4554202D2D2D002D2D2D20498D
:10061000434F4D2043492D56202D2D2D00547278E7
:100620004E65742064697361626C656420284E4570
:10063000545F49443D3078303029005472784E651B
:10064000742077616974696E6720666F7220455403
:1006500048206C696E6B002D2D2D205452584E454C
:1006600054202D2D2D002D2D2D2050545420534538
:100670005155454E434552202D2D2D004264206694
:10068000736B3D00487A20727474793D0020736961
:1006900064653D00207061643D00206D6F64653DC0
:1006A000004B657965722077706D3D002D2D2D20F2
:1006B0004B45594552202D2D2D002D2D2D204C43DD
:1006C000442052554E54494D45202D2D2D004F4666
:1006D00046004F4E005B4465627567200020202075
:1006E000202020202020202020202020200020202A
:1006F000202020202020202020202020202000201A
:100700007261773D005B42544E20000000210024BE
:100710000027002A002D00300033000101000004F2
:100720000107010A01000020002300260029002CF7
:10073000002F003200000100000301060109010042
:10074000000A0B02090C0D0E08070304010000004B
:100750000000000000000000000000000000000099
:100760000000000000000000000000121110000056
:100770000000000000000000000000000000000079
:1007800000000000007C3C3E5E2B3D3F2F5B5D3B4C
:100790002C2A225C000102102020080810204010A2
:1007A0002040800201020108040201010204081035
:1007B0002040808040201008040201800402018053
:1007C000402010080402010804020101020408107C
:1007D00020408001020408102040800000220025F3
:1007E0000028002B002E003100340002010000051B
:1007F0000108010B010505050507050808080802A1
:100800000202020A0A0808040404040101010101A9
:100810000101010303030303030303040707070C98
:100820000C0C0C0C0C0C0C0202020206060606064E
:100830000606060B0B0B0B0B0B0B0B028C46E05A40
:1008400011241FBECFEFD1E2DEBFCDBF00E00CBF51
:1008500017E0A0E0B2E0E2E8F3EC00E00BBF02C07A
:1008600007900D92A631B107D9F723E1A6E1B7E0D1
:1008700001C01D92A630B207E1F714E0CFE1D4E049
:1008800000E006C021970109802FFE010E94555CFF
:10089000CE31D10780E00807A9F70E94D3480C9415
:1008A000AF610C94000020E3FC0120833296862F78
:1008B00082958F706F706A3030F4605D6293682F3C
:1008C0008111F5CF0895695CF9CF6F927F928F9275
:1008D0009F92AF92BF92CF92DF92EF92FF920F93CF
:1008E0001F93CF93DF9300D000D0CDB7DEB77A014E
:1008F00069010BEB1DE0F801A081B181ED91FC9144
:1009000011976488758824E233E03A832983FC01D7
:1009100082809380A480B5808B829C82AD82BE82CF
:10092000AB01BE016F5F7F4FCD01F3011995D80177
:100930008D919C91DC01ED91FC910280F381E02D81
:10094000A601B7011995F80180819181DC01ED9133
:10095000FC91008CF18DE02D199526960FB6F89438
:10096000DEBF0FBECDBFDF91CF911F910F91FF90E2
:10097000EF90DF90CF90BF90AF909F908F907F903F
:100980006F900895CF92DF92EF92FF92CF93DF9313
:10099000EC016A017B01E889F98982E08083C11456
:1009A00081EED806E104F104A1F060E079E08DE386
:1009B00090E0A70196010E94105C21503109410985
:1009C00051095695479537952795211580E13807A8
:1009D00098F0E889F989108260E874E88EE190E087
:1009E000A70196010E94105C21503109410951096B
:1009F0005695479537952795EC85FD853083EE858F
:100A0000FF852083188EEC89FD8986E08083EA8942
:100A1000FB89808180618083EA89FB89808188608D
:100A20008083EA89FB89808180688083EA89FB89E9
:100A300080818F7D8083DF91CF91FF90EF90DF9059
:100A4000CF9008958150823108F05AC0E82FF0E02D
:100A50008827E25DFA4F8F4F0C94555C4E05520586
:100A6000400546054A05800555055B055F0565059A
:100A700069056D057305770580057B05810585058D
:100A8000809180008F77809380000895809180000E
:100A90008F7DF9CF80918000877FF5CF84B58F77E8
:100AA00084BD089584B58F7DFBCF8091B0008F7792
:100AB0008093B00008958091B0008F7DF9CF809130
:100AC00090008F77809390000895809190008F7DA3
:100AD000F9CF80919000877FF5CF8091A0008F772C
:100AE0008093A00008958091A0008F7DF9CF809120
:100AF000A000877FF5CF809120018F778093200120
:100B00000895809120018F7DF9CF80912001877F0A
:100B1000F5CFCF93DF93282F30E0F901E15CF84F58
:100B20008491F901EB56F84FD491F901EB50F84F4D
:100B3000C491CC23A1F081110E942205EC2FF0E09A
:100B4000EE0FFF1FEB5DF84FA591B491EC91ED23F3
:100B500081E090E009F480E0DF91CF91089580E09A
:100B600090E0FACF1F93CF93DF93282F30E0F90165
:100B7000E15CF84F8491F901EB56F84FD491F901FB
:100B8000EB50F84FC491CC23A9F0162F81110E948D
:100B90002205EC2FF0E0EE0FFF1FE552F84FA59174
:100BA000B4918FB7F894EC91111108C0D095DE2361
:100BB000DC938FBFDF91CF911F910895DE2BF8CF8B
:100BC000CF93DF9390E0FC01EB56F84F24918B50CC
:100BD000984FFC0184918823C9F090E0880F991FF9
:100BE000FC01E55FF84FA591B491FC01E552F84F87
:100BF000C591D49161110DC09FB7F8948C91209547
:100C000082238C938881282328839FBFDF91CF91F3
:100C10000895623051F49FB7F8943C91822F8095EB
:100C200083238C93E8812E2BEFCF8FB7F894EC9130
:100C30002E2B2C938FBFEACF4F925F926F927F92B1
:100C40008F929F92AF92BF92CF92DF92EF92FF92DC
:100C50000F931F93CF93DF9300D01F921F92CDB7B6
:100C6000DEB78C012A013B01809137028430C9F044
:100C70008F3F09F492C00F900F900F900F900F903C
:100C8000DF91CF911F910F91FF90EF90DF90CF9068
:100C9000BF90AF909F908F907F906F905F904F909C
:100CA0000895EBE3F8E084918D8387FDE4CF61E064
:100CB00084E00E94E0059D81992321F08D8182309E
:100CC00009F0D2C14801B12CA12C60E072E18AE7A1
:100CD00090E0A50198010E94DE5B29833A834B8353
:100CE0005C8369017A0191E0C91AD108E108F10831
:100CF0008FEFC816D104E104F10409F00CF483C1AC
:100D000060E472E48FE090E0A50198010E94DE5B50
:100D100069017A0191E0C91AD108E108F1088D81D1
:100D2000823009F011C182E09FEFC916D104E104BD
:100D3000F10409F00CF460C160E970ED83E090E02B
:100D4000A50198010E94DE5B69017A0181E0C81A61
:100D5000D108E108F10883E09FEFC916D104E1044E
:100D6000F10409F00CF448C168E478EE81E090E009
:100D7000A50198010E94DE5B69017A0191E0C91A20
:100D8000D108E108F1088FEFC816D104E104F1049D
:100D900011F00CF019C184E02FC184E08093370278
:100DA000EBE3F8E094919D83892F9F3F09F463CF93
:100DB000923009F469C060F4992381F1913009F40B
:100DC00045C087FD58CF61E084E00E94E00576CF02
:100DD0009D81943009F49AC008F478C0953089F761
:100DE000109220011092210180912101886080934E
:100DF000210180912101816080932101E9EFF7E0D9
:100E0000E491F0E0EE0FFF1FE552F84F85919491C9
:100E1000E9E9F7E0E491E093DA0B49CF14BC15BCA3
:100E200084B5826084BD85B5816085BDE9EFF7E05A
:100E3000E491F0E0EE0FFF1FE552F84F8591949199
:100E4000E9E9F7E0E491E093E10B31CF1092800003
:100E50001092810080918100886080938100809150
:100E60008100816080938100E9EFF7E0E491F0E098
:100E7000EE0FFF1FE552F84F85919491E9E9F7E0F5
:100E8000E491E093E00B13CF1092B0001092B10008
:100E90008091B00082608093B0008091B100816049
:100EA0008093B100E9EFF7E0E491F0E0EE0FFF1F6F
:100EB000E552F84F859194919093DF0B8093DE0B70
:100EC000E9E9F7E0E491E093DD0BF1CE10929000B8
:100ED00010929100809191008860809391008091A0
:100EE0009100816080939100E9EFF7E0E491F0E0F8
:100EF000EE0FFF1FE552F84F85919491E9E9F7E075
:100F0000E491E093DC0B83E08D83D1CE1092A000BE
:100F10001092A1008091A10088608093A10080912F
:100F2000A10081608093A100E9EFF7E0E491F0E097
:100F3000EE0FFF1FE552F84F85919491E9E9F7E034
:100F4000E491E093DB0BB3CE8FEFC816D104E1043C
:100F5000F10409F00CF486C068E478EE81E090E0DA
:100F6000A50198010E94DE5B69017A0191E0C91A2E
:100F7000D108E108F1088D81882309F48DC18FEF34
:100F8000C816D104E104F10409F00CF404CF62E1C5
:100F90007AE780E090E0A50194010E94DE5B6901A0
:100FA0007A0191E0C91AD108E108F1088D818823FE
:100FB00009F447C18FEFC816D104E104F10411F020
:100FC00008F048C186E018C064E274EF80E090E069
:100FD000A50194010E94DE5B69017A0191E0C91AC2
:100FE000D108E108F1088FEFC816D104E104F1043B
:100FF00011F008F041C185E09091B100987F892BF4
:101000008093B10008C081E09D819111F5CF95B525
:10101000987F892B85BD2FEF3FEFA9014114510423
:101020006104710409F049C09D81923009F4E7C060
:101030000CF0CEC0992309F4D3C0913009F01BCE37
:10104000D0928900C09288002093F20B3093F30B6A
:101050004093F40B5093F50B80916F008260809366
:101060006F0009CE82E0D0CFB12CA12C60E072E1FC
:101070008AE790E0A50198010E94DE5B69017A0190
:1010800081E0C81AD108E108F108C114D10491E047
:10109000E906F10404F591E08D81813069F58091D4
:1010A0008100887F892B809381002FEF3FEFA9017A
:1010B000411451046104710419F2D801AA0FBB1F35
:1010C000A30192010E94FD5B28EE33E040E050E076
:1010D0000E94105CA9CF68E478EE81E090E0A50161
:1010E00098010E94DE5B69017A0181E0C81AD1088B
:1010F000E108F10893E0D0CF8D81833001F5809134
:101100009100887F892B809391002FEF3FEFA901F9
:10111000411451046104710481F6D0929900C09287
:1011200098002093EA0B3093EB0B4093EC0B509319
:10113000ED0B809171008260809371009CCD8D8158
:10114000843009F58091A100887F892B8093A100CC
:101150002FEF3FEFA901411451046104710409F01C
:10116000ACCFD092A900C092A8002093E60B309398
:10117000E70B4093E80B5093E90B8091720082607B
:101180008093720078CD8D81853009F044CF8091B5
:101190002101887F892B809321012FEF3FEFA90147
:1011A000411451046104710409F087CFD0922901E0
:1011B000C09228012093E20B3093E30B4093E40BA1
:1011C0005093E50B8091730082608093730053CD40
:1011D0008D81843031F20CF4A0CF853039F34BCDC2
:1011E000C7BC2093F60B3093F70B4093F80B50934A
:1011F000F90B80916E00826080936E003CCDC092AE
:10120000B3002093EE0B3093EF0B4093F00B509311
:10121000F10B809170008260809370002CCDC980AA
:10122000DA80EB80FC809AE0F594E794D794C79439
:101230009A95D1F791E0C91AD108E108F10885E043
:10124000E6CE8FEFC816D104E104F10409F038F7B7
:1012500084E0DDCEC980DA80EB80FC808AE0F59402
:10126000E794D794C7948A95D1F791E0C91AD10829
:10127000E108F10887E0C0CE62E17AE780E090E023
:10128000A50194010E94DE5B69017A0191E0C91A0F
:10129000D108E108F1088ECE83E09FEFC916D10492
:1012A000E104F10411F00CF072CEB1CE90917B000C
:1012B000977F90937B008653806480937C0080911D
:1012C0007A00806480937A0080917A0086FDFCCF5A
:1012D000809178009091790008953FB7F8948091BB
:1012E0009A0990919B09A0919C09B0919D0926B5FE
:1012F000A89B05C02F3F19F00196A11DB11D3FBF4E
:10130000BA2FA92F982F8827BC01CD01620F711D1C
:10131000811D911D42E0660F771F881F991F4A9516
:10132000D1F708958F929F92AF92BF92CF92DF92A2
:10133000EF92FF924B015C010E946D096B017C01F1
:101340000E946D096C197D098E099F09683E7340E2
:1013500081059105A8F321E0821A9108A108B1083E
:1013600088EEC80E83E0D81EE11CF11C81149104A4
:10137000A104B10429F7FF90EF90DF90CF90BF90C8
:10138000AF909F908F9008952FB7F8946091960931
:101390007091970980919809909199092FBF0895AC
:1013A0009091370289130DC0EBE3F8E0E4919FEFD1
:1013B00090933702E230E1F038F4EE2381F0E1302F
:1013C00089F060E00C94B205E43049F110F1E530A9
:1013D000C1F7909173009D7F90937300F2CF1092AC
:1013E0006E00EFCF90916F009D7F90936F00E9CFDB
:1013F000909170009D7F9093700091E09093B00069
:101400009091B100987F94609093B1001092B300D6
:10141000D8CF909171009D7F90937100D2CF909121
:1014200072009D7F90937200CCCFDC01ED91FC9116
:101430000190F081E02D1994DB0114964D915C919F
:1014400015976D917C91DC01ED91FC910280F38107
:10145000E02D1994EF92FF920F931F93CF93DF9398
:101460008C017B01D0E0C0E0F701EC0FFD1F64911F
:10147000662361F0D801ED91FC910190F081E02D9F
:10148000C8011995892B11F02196EECFCE01DF917D
:10149000CF911F910F91FF90EF900895AF92BF925F
:1014A000CF92DF92EF92FF920F931F93CF93DF9330
:1014B0006C017B018B01040F151FEB015E01AE185F
:1014C000BF08C017D10759F06991D601ED91FC9181
:1014D0000190F081E02DC6011995892B79F7C5019E
:1014E000DF91CF911F910F91FF90EF90DF90CF9000
:1014F000BF90AF900895FC01538D448D252F30E0AF
:10150000842F90E0821B930B541710F0CF96089510
:1015100001970895FC01918D828D981761F0A28D3D
:10152000AE0FBF2FB11D5D968C91928D9F5F9F7303
:10153000928F90E008958FEF9FEF0895FC01918DB9
:10154000828D981731F0828DE80FF11D858D90E026
:1015500008958FEF9FEF0895FC01918D228D892FC3
:1015600090E0805C9F4F821B91098F7399270895AB
:101570008AEF9BE00E94AC0A21E0892B09F420E06D
:10158000822F089587E99CE00E94AC0A21E0892B14
:1015900009F420E0822F0895FC01A48DA80FB92F33
:1015A000B11DA35ABF4F2C91848D90E001968F738B
:1015B0009927848FA689B7892C93A089B1898C91AA
:1015C000837080648C93938D848D981306C00288F9
:1015D000F389E02D80818F7D80830895EF92FF92C3
:1015E0000F931F93CF93DF93EC0181E0888F9B8D46
:1015F0008C8D98131AC0E889F989808185FF15C000
:101600009FB7F894EE89FF896083E889F989808122
:101610008370806480839FBF81E090E0DF91CF91F1
:101620001F910F91FF90EF900895F62E0B8D10E013
:101630000F5F1F4F0F731127E02E8C8D8E110CC082
:101640000FB607FCFACFE889F989808185FFF5CFCD
:10165000CE010E94CC0AF1CFEB8DEC0FFD2FF11DD6
:10166000E35AFF4FF0829FB7F8940B8FEA89FB890A
:1016700080818062CFCFCF93DF93EC01888D882368
:10168000B9F0AA89BB89E889F9898C9185FD03C0E5
:10169000808186FD0DC00FB607FCF7CF8C9185FFCA
:1016A000F2CF808185FFEDCFCE010E94CC0AE9CF39
:1016B000DF91CF91089580E090E0892B29F00E947E
:1016C000C20A81110E94000080E090E0892B49F05D
:1016D00080E090E0892B29F00E94000081110E9497
:1016E000000080E090E0892B29F00E94B80A811167
:1016F0000E94000080E090E0892B49F080E090E0BB
:10170000892B29F00E94000081110C94000008959B
:10171000FC0120812EBD9B012150310941F05181F6
:101720000DB407FEFDCF4EB55EBD4193F5CF6150C0
:101730007109860F971F0DB407FEFDCF2EB5FC0172
:1017400020830895E0919708F09198088081909106
:101750009608892B80830895E0919708F091980866
:10176000908180919608809589238083089590E0E8
:101770002091D609233339F40C96982F990F990F9D
:10178000990F80E008954896F8CF0895CF93DF939E
:101790001F92CDB7DEB76983DC01ED91FC91028029
:1017A000F381E02D41E050E0BE016F5F7F4F19955E
:1017B0000F90DF91CF910895FC01818D928D089556
:1017C000089561E0FC0184810E94B2058091910836
:1017D00081111092910808958EBD00000DB407FE8E
:1017E000FDCF8EB50895AF92BF92CF92DF92EF9268
:1017F000FF920F931F93CF93DF9300D000D01F92DF
:101800001F92CDB7DEB78C017B016A018091D609AA
:101810008333E1F45801A40EB51EA016B10609F4F5
:101820006FC00E94AC0B80EF0E94EC0B812F0E94D6
:10183000EC0B802F0E94EC0B0F5F1F4FF701819183
:101840007F010E94EC0B0E94A20BE7CF5B01A40E6C
:10185000B51E8433C1F40E94AC0B19830A838D2D0D
:1018600080688B83CC8264E070E0CE0101960E9498
:10187000880BAE14BF0409F441C0F70181917F01C8
:101880000E94EC0BF6CF0E94AC0B0F3F110509F044
:1018900028F419820A8384E08B830CC017FD17C0DB
:1018A00019820A8333E0169507953A95E1F7007E91
:1018B0000C600B8386E0C816D104A0F5F701DE01A9
:1018C0001496EA15FB0599F081918D93FACFC80122
:1018D00026E0969587952A95E1F7807E19830A83FD
:1018E0000115104C10F48461D7CF8C61D5CFB601AF
:1018F0006D5F7F4FCE0101960E94880B0E94A20B64
:10190000C60128960FB6F894DEBF0FBECDBFDF919B
:10191000CF911F910F91FF90EF90DF90CF90BF90EC
:10192000AF90089563E070E0CE0101960E94880BAD
:10193000F70181917F010E94EC0BAE14BF04C1F747
:10194000DDCFDA01E0919908F0E0FE2FEE27E60FF7
:10195000F71F90E0982F8827A901BD018E0F9F1FC8
:101960000C94F30BCF93DF931F921F92CDB7DEB78A
:1019700079836A8322E030E0AE014F5F5F4F64E01D
:1019800070E00E94A10C0F900F90DF91CF9108950D
:1019900044E050E0BC018FE090E00C94F30B44E095
:1019A00050E0BC0185E090E00C94F30B44E050E083
:1019B000BC0181E090E00C94F30BCF93DF931F9276
:1019C000CDB7DEB7698341E050E0BE016F5F7F4F66
:1019D0000E94F30B0F90DF91CF910895682F90E054
:1019E00080E00C94DD0C2091990830E0322F222702
:1019F000260F371F90E0982F8827642F820F931FA0
:101A00000C94DD0C8FEF0C94EC0B0F931F93CF9382
:101A1000DF93EC010E94C4098B010E94020D8F3FED
:101A200069F00E94C409601B710B6C177D07A8F355
:101A300080E0DF91CF911F910F91089581E0F9CF60
:101A40008CBD9DBD0895DF92EF92FF920F931F937F
:101A5000CF93DF931F921F92CDB7DEB7FB01DC015E
:101A600057961C921E9256972281211109C02381FC
:101A7000211106C02481211103C02581222369F18F
:101A80004115510551F17A018F01FC01D08C80E59F
:101A900091E00E94200DA8014E5F5F4F24E030E0EE
:101AA0006CE070E08D2D0E94A10CF982EA8222E0A8
:101AB00030E0AE014F5F5F4F60E170E08D2D0E941E
:101AC000A10C81E090E00F900F90DF91CF911F91DA
:101AD0000F91FF90EF90DF90089580E0F3CFCF93C8
:101AE000DF93EC0180919108811109C081E080931E
:101AF00091088091700D9091710D0E94200D60E011
:101B00008C81DF91CF910C94B2058F929F92AF920E
:101B1000BF92FF920F931F93CF93DF93EC01F62EAA
:101B200049015A018E81882389F08F8198859C0113
:101B30002F5F3F4F38872F838230924018F40E94E6
:101B4000020DF3CFCE010E94E10B1E82CE010E9456
:101B50006F0D8CE291E00E94050D8F2D80640E9434
:101B6000EC0B08E110E0D501C401002E04C0B695CD
:101B7000A795979587950A94D2F70E94EC0B085089
:101B80001109083F8FEF180771F785E9FF2021F051
:101B900028E087E8F2128FEF0E94EC0B10E00E9421
:101BA000020D8A8787FF04C01F3F11F01F5FF7CF28
:101BB000DF91CF911F910F91FF90BF90AF909F90B9
:101BC0008F900895AF92BF92CF92DF92EF92FF92E3
:101BD0000F931F93CF93DF93EC016901C801820F2C
:101BE000931F8130924050F58E81882379F088814F
:101BF0009981AA81BB8184179507A607B70731F49D
:101C00008F819885C816D90608F042C04883598349
:101C10006A837B838B85833039F089E0440F551FBD
:101C2000661F771F8A95D1F79A01AB0161E1CE015A
:101C30000E94850D882389F083E08D83CE010E9468
:101C4000E10B80E0DF91CF911F910F91FF90EF901A
:101C5000DF90CF90BF90AF9008950E94C4095B01C0
:101C60000E94020D8A878F3F69F40E94C4096A1995
:101C70007B096D327140A0F38FE08D83CE010E940D
:101C8000E10BDCCF8E3F89F418861F8281E08E83C2
:101C90008F8198858C159D0550F40E94020D8F81CF
:101CA0009885019698878F83F3CF8DE0E6CF670103
:101CB000E00EF11E0E94020DF60181936F01EE15F8
:101CC000FF05C1F78F819885080F191F18870F83AB
:101CD0008985882319F001151240A0F08E81882390
:101CE00089F08F8198859C012F5F3F4F38872F8324
:101CF0008230924018F40E94020DF3CFCE010E9470
:101D0000E10B1E8281E09ECFCF92DF92EF92FF9295
:101D10000F93CF93DF93EC01690182E141155105E7
:101D20006105710599F08B85833039F089E0440FA6
:101D3000551F661F771F8A95D1F79A01AB0168E19D
:101D4000CE010E94850D882319F084E08D832DC07B
:101D50008EEF0E94EC0B76018EEFD81AF70181917D
:101D60007F010E94EC0BEC14FD04C1F78FEF0E9481
:101D7000EC0B8FEF0E94EC0B0E94020D8A878F7193
:101D8000853071F4011116C0CE010E94E10B81E093
:101D9000DF91CF910F91FF90EF90DF90CF9008955A
:101DA00081E18D83CE010E94E10BCE010E94E10B07
:101DB00080E0EECF88E592E00E94050D811102C01F
:101DC00085E1C4CF20E030E0A9016DE0CE010E94A2
:101DD000850D882311F084E1B9CF0E94020D811195
:101DE000FACFD2CF0F93409192085091930860910F
:101DF000940870919508411551056105710599F098
:101E0000082F2AED39E08091D7099091D8090E94D6
:101E1000840E882349F01092920810929308109231
:101E200094081092950881E00F9108950F93CF9335
:101E3000C82F8091D909811105C0C1E08C2FCF91A5
:101E40000F91089540913302509134026091350210
:101E5000709136020C2F2AED39E08091D7099091CC
:101E6000D8090E94840E811102C0C0E0E7CFCC23C4
:101E700021F381E00E94F20E8823B9F31092D90970
:101E8000DDCF8F929F92AF92BF92EF92FF920F930E
:101E90001F93CF934B015C01C42F8091330290912B
:101EA0003402A0913502B091360288159905AA0531
:101EB000BB0551F181E00E94160F81110BC080E03B
:101EC000CF911F910F91FF90EF90BF90AF909F9097
:101ED0008F9008958AEDE82E89E0F82E00E012E058
:101EE00030E020E0B501A4018091D7099091D80994
:101EF0000E94E20D882319F38092330290923402FB
:101F0000A0923502B09236024091D9094C2B4093F1
:101F1000D90981E0D5CF8F929F92AF92BF92CF9295
:101F2000DF92EF92FF92CF9322E73DE03093D80902
:101F30002093D709882309F46DC040E060E070E089
:101F4000CB010E94410F81110BC080E0CF91FF9027
:101F5000EF90DF90CF90BF90AF909F908F900895BB
:101F60008091980B8F7789F78091A40B9091A50BA6
:101F7000A091A60BB091A70B84369105A105B105E0
:101F800020F3C090A00BD090A10BE090A20BF0909A
:101F9000A30BC114D104E104F104B9F240E0C7017C
:101FA000B6010E94410F882381F28091E50990914A
:101FB000E6098115924049F6A091EA09AA2329F27F
:101FC0006091E8097091E9096115710509F4BDCFC7
:101FD0002091E709222309F4B8CFA093900D209314
:101FE000820D90E080E030E0E1E0F0E0C82FAF014A
:101FF000082E02C0440F551F0A94E2F72417350734
:1020000069F041E0480F01968930910579F74093D6
:102010008B0D9BCFC12CD12C7601C0CF80938B0D23
:102020002091F0093091F10950E040E0211531058F
:1020300041F42091FE093091FF094091000A50912E
:10204000010A2093830D3093840D4093850D5093A6
:10205000860D46015701860E971EA11CB11C809269
:10206000910D9092920DA092930DB092940DE091EB
:10207000EB09F091EC09F093970DE093960DB0E029
:102080000E94FD5BDC01CB01880D991DAA1DBB1DC3
:102090008093980D9093990DA0939A0DB0939B0DFA
:1020A00025E0EE0FFF1F2A95E1F7E150FE4FEF2FDD
:1020B000FF27E6958E0F9F1FA11DB11D80938C0DEC
:1020C00090938D0DA0938E0DB0938F0D8090ED09A0
:1020D0009090EE09B12CA12C8114910441F48090D0
:1020E000FA099090FB09A090FC09B090FD09C81A6C
:1020F000D90AEA0AFB0AC80CD91CEA1CFB1C04C05A
:10210000F694E794D794C794CA95D2F7C092870DF6
:10211000D092880DE092890DF0928A0D85EFC81655
:102120008FE0D806E104F10428F48CE08093950D4B
:1021300081E00CCF80E125EFC2162FEFD206E1043B
:10214000F104A0F38091060A9091070AA091080A71
:10215000B091090A8093980D9093990DA0939A0DD0
:10216000B0939B0D80E2E2CF4F925F926F927F928D
:102170008F929F92AF92BF92CF92DF92EF92FF9297
:102180000F931F93CF93DF93EC014230510561050C
:10219000710590F480E0DF91CF911F910F91FF9036
:1021A000EF90DF90CF90BF90AF909F908F907F90F7
:1021B0006F905F904F90089589859A85AB85BC8517
:1021C0000196A11DB11D84179507A607B70710F347
:1021D000CB88DC88ED88FE888F89803109F042C089
:1021E000BB27A72F962F852F480159012A013B01B4
:1021F000C80ED91EEA1EFB1E809133029091340254
:10220000A0913502B0913602C816D906EA06FB063F
:1022100099F58F898031C1F5B301A2015527662751
:102220007727440F551F4652564FFA0191828082FC
:102230008091D90981608093D9098A89823080F0A0
:102240008D819E81AF81B8858C0D9D1DAE1DBF1DFA
:102250008093920890939308A0939408B093950864
:1022600081E099CFDB01CA01E7E0B695A795979584
:102270008795EA95D1F7B8CF40E0C701B6010E9433
:10228000410F8111C6CF86CFB301A2014F775527E9
:1022900066277727440F551F440F551F4652564F48
:1022A000FA0180829182A282B382C2CF8F929F92E2
:1022B000AF92BF92CF92DF92EF92FF920F931F9354
:1022C000CF93DF93FC0181859285A385B485019628
:1022D000A11DB11D84179507A607B70770F480E00C
:1022E000DF91CF911F910F91FF90EF90DF90CF90F2
:1022F000BF90AF909F908F90089583889488A58811
:10230000B6888789803189F5BB27A72F962F852F1F
:10231000E9016A017B018F01BC01CD01680D791DC6
:102320008A1D9B1D8090330290903402A09035024C
:10233000B090360286169706A806B90601F5F80190
:102340008789803111F5DD24EE24FF24F601EE0F9C
:10235000FF1FE652F64F80819181B0E0A0E08883B4
:102360009983AA83BB8381E0BBCFDB01CA01C7E0AD
:10237000B695A79597958795CA95D1F7C9CF40E0AF
:102380000E94410F8111DBCFAACFE894C7F8DD246A
:10239000EE24FF24F601EE0FFF1FEE0FFF1FE652A3
:1023A000F64F80819181A281B381BF70D8CF4F92C7
:1023B0005F926F927F92AF92BF92CF92DF92EF9235
:1023C000FF920F931F93CF93DF9300D01F92CDB74F
:1023D000DEB78C0149835A836B837C835901C12CFE
:1023E000D12C7601412C82E0582E612C712C498130
:1023F0005A816B817C819E012F5F3F4FC8010E94F3
:102400005611882339F1F8018585A301920104C092
:10241000220F331F441F551F8A95D2F7DA01C901D5
:10242000C80ED91EEA1EFB1E49815A816B817C8130
:102430008789803111F188EF9FEFAFEFBFE0481738
:1024400059076A077B0798F2F501C082D182E282C0
:10245000F38281E00F900F900F900F90DF91CF915A
:102460001F910F91FF90EF90DF90CF90BF90AF90B2
:102470007F906F905F904F90089588EF9FEFA0E05E
:10248000B0E0DDCFCF93DF93FC012581222321F043
:1024900080E0DF91CF910895EC018091950D80311E
:1024A00059F582E08583178A108E118E128E8091E5
:1024B000960D9091970DB0E0A0E025E0880F991F50
:1024C000AA1FBB1F2A95D1F7838B948BA58BB68B44
:1024D0008EE79DE09C8F8B8F81E08C831E821F8214
:1024E000188619861A861B861C861D861E861F86E0
:1024F000188A198A1A8ACDCF803251F683E08583F3
:102500004091980D5091990D60919A0D70919B0D8D
:10251000478B508F618F728F9F012D5E3F4F8EE7EB
:102520009DE00E94D7118111D3CFB2CF8F929F929D
:10253000AF92BF92CF92DF92EF92FF920F931F93D1
:10254000CF93DF93EC018D8181110EC080E0DF918C
:10255000CF911F910F91FF90EF90DF90CF90BF90A0
:10256000AF909F908F9008950B891C892D893E898B
:10257000041715072607370748F34A015B01823025
:1025800031F48A869B86AC86BD8681E0E0CF8114DB
:102590009104A104B10449F41E821F821886198691
:1025A0001A861B861C861D86F0CF0A851B852C8506
:1025B0003D85EB8DFC8D858590E00996B901A801DC
:1025C0004150510961097109082E04C0769567953B
:1025D000579547950A94D2F775016401E1E0CE1A48
:1025E000D108E108F10804C0F694E794D794C794A1
:1025F0008A95D2F7C416D506E606F70620F0012B19
:10260000022B032B11F58F89988DA98DBA8D8E839E
:102610009F83A887B9878E010A5F1F4FC114D10419
:10262000E104F10409F4ADCF4E815F8168857985BD
:1026300098018B8D9C8D0E94561191E0C91AD1088A
:10264000E108F1088111EACF81CFC41AD50AE60A60
:10265000F70AE1CF3F924F925F926F927F928F92F3
:102660009F92AF92BF92CF92DF92EF92FF920F9321
:102670001F93CF93DF93CDB7DEB72C970FB6F894A7
:10268000DEBF0FBECDBF5C01DC015B968D909C90E0
:102690005C9716964D905D906D907C9019974114C3
:1026A00051046104710409F468C0BFEF4B1A5B0A5E
:1026B0006B0A7B0A312CF40181859285A385B48550
:1026C0009C01AD012F5F3F4F4F4F5F4F29873A87E6
:1026D0004B875C87730162011D821E821F821886F0
:1026E000F40181859285A385B4852D813E814F813A
:1026F0005885281739074A075B0708F056C08985AF
:102700009A85AB85BC858C159D05AE05BF0550F43B
:1027100082E0C82ED12CE12CF12C92E0492E512CD4
:10272000612C712C9E012F5F3F4FB701A601C401A0
:102730000E9456118823C9F189819A81AB81BC819D
:10274000892B8A2B8B2B09F1260137019FEF491A20
:10275000590A690A790A2D813E814F8158852F5F78
:102760003F4F4F4F5F4F2D833E834F8358873FEF3F
:10277000C31AD30AE30AF30AB3CFF40140805180AD
:10278000628073803324339496CFC414D504E60456
:10279000F70409F70FEF1FEF2FEF3FE0B701A60196
:1027A000C4010E94B410811119C080E02C960FB6AC
:1027B000F894DEBF0FBECDBFDF91CF911F910F9177
:1027C000FF90EF90DF90CF90BF90AF909F908F9051
:1027D0007F906F905F904F903F900895D50116962F
:1027E0004D915D916D917C91199741155105610550
:1027F000710539F097018601C4010E94B410882345
:10280000A1F2D5011696CD92DD92ED92FC92199728
:10281000332051F0D701C6010196A11DB11DF4016D
:1028200080839183A283B383F5018789908DA18DE5
:10283000B28D892B8A2B8B2B39F48481C78AD08E59
:10284000E18EF28E80688483F501848180628483C6
:1028500081E0ACCF1F93CF93DF93FC01258122232E
:10286000D1F1162FEC01848187FF2AC06685778518
:102870008089918941E00E94410F882361F1EA89B2
:1028800080E2E89FF0011124E652F64F309719F1EB
:102890008D81823040F48B899C89AD89BE89848F7B
:1028A000958FA68FB78F8F89988D938F828F8F8901
:1028B000988DA98DBA8DB58BA48B8C818F778C83E5
:1028C000111103C08C818F7E8C83812FDF91CF917A
:1028D0001F910C94160F80E0DF91CF911F91089506
:1028E000FF920F931F93CF93DF93EC018D81813083
:1028F00041F090E080E0DF91CF911F910F91FF9028
:1029000008958C8181FFF5CF82FD1BC00091D7090E
:102910001091D809C8010E946F0D0E94020DF82E77
:10292000C8010E94E10B8FEFF812E3CF8C8185FF85
:102930001BC060E0CE010E942A148C818F7D8C83A5
:10294000D8CF4B895C896D897E898A859B85AC85CA
:10295000BD8584179507A607B707C1F2CE010E946F
:1029600096128111D3CFC5CF409192085091930810
:102970006091940870919508452B462B472B21F0C8
:1029800080E00E94F20EB5CF80618C832A853B8562
:10299000317080E092E0821B930BADCFCF93DF9339
:1029A000EC0161E00E942A14882311F01D8281E06D
:1029B000DF91CF9108952F923F924F925F926F9245
:1029C0007F928F929F92AF92BF92CF92DF92EF92BF
:1029D000FF920F931F93CF93DF9300D01F921F920C
:1029E000CDB7DEB77C015B01342E5D83DC0115962B
:1029F0008C911597813009F0CEC014962C9021FE51
:102A0000CAC022FCB4C0C32CDD8022947FE0272200
:102A10002094B22DB1702B2ED7011A964D915D9155
:102A20006D917C911D97C114D10409F428C15B9666
:102A30008D919C915C97FC0174807A948A019B0132
:102A400069E036952795179507956A95D1F7702215
:102A50008A011170711020C001151105E9F4169654
:102A60004D915D916D917C911997411551056105CD
:102A7000710509F099C057968D919D910D90BC916B
:102A8000A02D0097A105B10509F0B0C0C7010E94B3
:102A90002A13882309F47FC080E092E0801B910B09
:102AA00046018C159D0508F44C01D7015B964D91AC
:102AB0005C915C9716968D919D910D90BC91A02D87
:102AC0000297A109B109FA01258504C0880F991F51
:102AD000AA1FBB1F2A95D2F7468557856089718941
:102AE000840F951FA61FB71F9C01AD01270D311D37
:102AF000411D511D29013A01811432E0930609F06C
:102B00007BC08091330290913402A0913502B09144
:102B1000360284159505A605B70559F48FEF9FEF8A
:102B2000DC018093330290933402A0933502B0937A
:102B30003602022D9501B301A2018091D70990912F
:102B4000D8090E94840E882331F19EEFB91AC81863
:102B5000D908F70182859385A485B585880D991DCF
:102B6000A11DB11D82879387A487B58755CFF70133
:102B7000438954896589768982859385A485B5853D
:102B8000481759076A077B0709F43DCFC7010E9420
:102B90009612811138CF81E090E0D70113969C9373
:102BA0008E93129780E007C09E012F5F3F4F0E94D7
:102BB0005611811102C090E079C089819A81AB8160
:102BC000BC81F701238D348DF901278948EF5FEF30
:102BD00060E070E0203121F048EF5FEF6FEF7FE0C1
:102BE00084179507A607B70708F050CFF70186832B
:102BF0009783A087B18750CF0115110599F5D701AB
:102C00001A964D915D916D917C911D9753968D9182
:102C10009D910D90BC91A02D481759076A077B071D
:102C200008F181E00E94160F882309F4B4CF409286
:102C300033025092340260923502709236028091D3
:102C4000D90981608093D909C8018652964FD50170
:102C50009C01280D391DFC012E173F0759F04D919D
:102C60004193FACF41E0C301B2010E94410F8111AB
:102C7000EBCF91CF281B390BA20EB31E68CFF70103
:102C800083899489A589B68984179507A607B7070C
:102C900038F48481438B548B658B768B8068848376
:102CA000F701848183FD1AC0832D9D810F900F90C1
:102CB0000F900F900F90DF91CF911F910F91FF9088
:102CC000EF90DF90CF90BF90AF909F908F907F90CC
:102CD0006F905F904F903F902F90089561E0C701F3
:102CE0000E942A14882309F456CFDECFCF93DF93B6
:102CF0001F92CDB7DEB7698341E050E0BE016F5F40
:102D00007F4F0E94DB140F90DF91CF910895FC015B
:102D1000DB0112968D919C911397938382838EEEA3
:102D200092E09183808314968C91149784831596F6
:102D30008C911597858316964D915D916D917C913F
:102D4000199746835783608771871A964D915D91D5
:102D50006D917C911D9742875387648775871E9676
:102D60004D915D916D917C91519746875787608B0E
:102D7000718B52968C915297828B53964D915D91A7
:102D80006D917C915697438B548B658B768B5796C0
:102D90004D915D916D917C915A97478B508F618FCA
:102DA000728F5B968D919C91948F838F0895FC0117
:102DB000818D928D009719F061E00C942A1408958A
:102DC000DC015996ED91FC913097B9F08389948993
:102DD000A589B6894285538564857585841B950BC5
:102DE000A60BB70B811520E89207A105B10538F0B5
:102DF0008FEF9FE7A0E0B0E0089590E080E00895B5
:102E0000DC0159968D919C91009739F0DC01ED9190
:102E1000FC910480F581E02D199490E080E0089504
:102E2000CF93DF93EC01E98DFA8D309749F481E07F
:102E300090E09B838A8390E080E0DF91CF910895BA
:102E400013821282898D9A8D0E94DB14E98DFA8D8E
:102E500022813381232B59F7F0CFCF93DF931F9239
:102E6000CDB7DEB76983DC01ED91FC910280F3817F
:102E7000E02D41E050E0BE016F5F7F4F19950F904C
:102E8000DF91CF9108952F923F924F925F926F9270
:102E90007F928F929F92AF92BF92CF92DF92EF92EA
:102EA000FF920F931F93CF93DF9300D0CDB7DEB780
:102EB000FC018581811118C08FEF9FEF0F900F905B
:102EC0000F90DF91CF911F910F91FF90EF90DF90C6
:102ED000CF90BF90AF909F908F907F906F905F90BA
:102EE0004F903F902F900895848180FFE5CF4389D4
:102EF00054896589768982859385A485B585312C29
:102F0000212C481759076A077B0719F022242394BC
:102F1000312C6F012101CE0101963C01DF01169693
:102F2000BB83AA834114510409F4C5C0F60142854C
:102F30005385648575854A01F1E09F22D6015B9631
:102F40008D919C915C978A019B01E9E036952795CC
:102F500017950795EA95D1F71596EC91E230E9F5CA
:102F6000FC01628D738D848D958D600F711F821FA2
:102F7000931FA12C22E0B22EA818B9084A145B04B2
:102F800008F45201F601248126FD04C0A114F2E0E8
:102F9000BF0671F400913302109134022091350282
:102FA00030913602061717072807390709F05EC067
:102FB00040E00E94410F882309F47ECFC40186526D
:102FC000964FD3019C012A0D3B1DFC012E173F0794
:102FD00009F46CC041914D93F9CFDC011496BC907B
:102FE000BA94B0228114910479F4B1100DC0452B2C
:102FF000462B472B69F5F6018789908DA18DB28DFF
:1030000086839783A087B187D6015B96ED91FC916B
:103010005C9716966D917D918D919C911997625058
:10302000710981099109258504C0660F771F881FE2
:10303000991F2A95D2F70685178520893189600F57
:10304000711F821F931F6B0D711D811D911D91CFEB
:10305000D60116964D915D916D917C9119972A81BB
:103060003B810E9456118111CFCF26CF730185017C
:103070009401AB01BC018091D7099091D8090E94BD
:10308000E20D882309F418CF6A0C7B1CF6018285B7
:103090009385A485B5858A0D9B1DA11DB11D8287D1
:1030A0009387A487B5874A185B083CCF281B390B48
:1030B000620E731EEBCF2A94232809F0FDCE89817E
:1030C00090E0FCCEFC01818D928D009711F00C9464
:1030D00043178FEF9FEF08950F931F93CF93DF93C5
:1030E000EC01898D9A8D10E000E0009799F00E9424
:1030F00043178C010F3F100769F0898D9A8DFC01F1
:10310000428553856485758541505109610971096E
:103110000E949612C801DF91CF911F910F910895DF
:10312000CF93CFB7F89480919008811127C0EAE23D
:10313000F8E08491EAECF7E09491E82FF0E0EE0FEC
:10314000FF1FE55FF84FA591B491EC91E92321F4BD
:1031500061E085E30E94B20561E085E30E94E0053D
:103160008CB580618CBD8CB580648CBD61E084E3DE
:103170000E94E00561E083E30E94E00580919008F1
:103180008F5F80939008CFBFCF9108950895CF931C
:10319000DF93EB0140E550E060E070E00E941C0628
:1031A0000E94C409665A7F4F8F4F9F4F60936909F1
:1031B00070936A0980936B0990936C09D0936809A6
:1031C000C0936709DF91CF910895FC01208131817F
:1031D00046EF5FEF1616170614F44AE050E0240F8E
:1031E000351F2730F7E23F0714F026E037E237FFBC
:1031F00002C030E020E0FC01318320830895833356
:1032000008F082E3853008F485E090913002981749
:1032100079F08093300281E0809312090E94C40902
:1032200060930E0970930F09809310099093110910
:103230000895482F20910C0930E0C901019661E4FE
:1032400070E00E94415C90910B09981731F02D536A
:10325000374FF901408380930C09089580915709F5
:10326000811109C08CE10E94890521E0892B09F0B8
:1032700020E0822F08958AE1F6CF809157098111CD
:1032800009C08AE10E94890521E0892B09F020E02C
:10329000822F08958CE1F6CFCF93C091B708C1304B
:1032A000D9F40E942E19882319F081E0809309092E
:1032B00080912602813471F4C150C23058F40E94CA
:1032C0003D19882339F00E942E19882319F081E0D6
:1032D0008093B808CF910895C23041F40E943D19FF
:1032E000882331F381E080930A09E2CF0E943D19DF
:1032F0008823B9F281E080930A09D3CF60E087E1A7
:103300000C94E00580912E029FEF980F933008F007
:1033100083E090917E09992369F0E0912F02E031DA
:1033200048F4F0E0E259F64F90812FEF290F233057
:1033300008F4892F089590910D09981791F08093C2
:103340000D09882321F00E94821980930F020E94A8
:10335000C4096093750870937608809377089093FA
:1033600078080895452B39F0FB01808180934E0841
:1033700081E080934F0808954430510580F0FB01AF
:1033800080819181A281B3818093500890935108EC
:10339000A0935208B093530881E080935408089595
:1033A0006EEF8AEF9BE00E94EE0A6EEF8AEF9BE0E1
:1033B0000E94EE0A609106028AEF9BE00E94EE0AEC
:1033C0006EE08AEF9BE00E94EE0A67E08AEF9BE0E6
:1033D0000E94EE0A62ED8AEF9BE00E94EE0A60E036
:1033E0008AEF9BE00E94EE0A6DEF8AEF9BE00E945D
:1033F000EE0A8AEF9BE00C943B0BCF93C82F6EEF45
:103400008AEF9BE00E94EE0A6EEF8AEF9BE00E943B
:10341000EE0A609106028AEF9BE00E94EE0A6EE0DF
:103420008AEF9BE00E94EE0A6C2F8AEF9BE00E94DD
:10343000EE0A6DEF8AEF9BE00E94EE0A8AEF9BE0B6
:10344000CF910C943B0BFC01848595850895FC017C
:1034500084899589089524E233E0FC013183208337
:10346000FB014089518962897389FC01428353833E
:10347000648375830895DC01ED91FC91048CF58DD6
:10348000E02D199490E080E008950F931F93CF935F
:10349000DF93EC0180E2689FF0011124E652F64FC1
:1034A0006A8B8091330290913402A0913502B091E1
:1034B00036028E879F87A88BB98B0489158930E0E7
:1034C00020E09801112700270F8B188F298F3A8F42
:1034D000828D938DB0E0A0E0AC01BD01402B512B5B
:1034E000622B732B4F8B588F698F7A8F83858871EE
:1034F000A9F4848D958DA68DB78D8B8B9C8BAD8B10
:10350000BE8B81E08D8381E08C831E821F821886B2
:1035100019861A861B861C861D8603C0803131F0F1
:1035200080E0DF91CF911F910F9108959E012D5E54
:103530003F4F8B8D9C8D0E94D711882389F384E0A7
:10354000E1CFCF93DF93EC0160E08E810E94B20562
:1035500061E08E810E94B20560E08E810E94B2051A
:103560008BE891E00197F1F7DF91CF910895CF9229
:10357000DF92EF92FF920F931F93CF93DF936C0133
:103580007C0187E0E80EF11CD0E0C0E0062F10E0DF
:10359000B8010C2E02C0759567950A94E2F7617028
:1035A000F70181917F010E94B2052196C430D105B7
:1035B00079F7C601DF91CF911F910F91FF90EF90A6
:1035C000DF90CF900C94A11ACF92DF92EF92FF92EE
:1035D0000F931F93CF93DF93EC01F62E642F8C8112
:1035E0000E94B2058D818F3F19F060E00E94B20504
:1035F0000F2D10E08F8584FF25C06E0187E0C80E77
:10360000D11CF12CE12CB8010E2C02C075956795E8
:103610000A94E2F76170F60181916F010E94B20590
:10362000FFEFEF1AFF0A88E0E816F10461F7CE0118
:10363000DF91CF911F910F91FF90EF90DF90CF908E
:103640000C94A11AB80184E0759567958A95E1F705
:10365000CE010E94B71A6F2DCE01DF91CF911F913D
:103660000F91FF90EF90DF90CF900C94B71A40E04D
:10367000682F8AEE92E10C94E41A81E00E94371BD5
:103680008BE39FE10197F1F708959091FD1269177F
:1036900010F06FEF690FE62FF0E0E651FD4E9489D0
:1036A000890F80680C94371BCF93DF93823029F405
:1036B0009091F91298609093F9128093FD121092F4
:1036C000FE1280E48093FF1280E18093001380E576
:1036D0008093011361E08091EE120E94E0058091D9
:1036E000EF128F3F19F061E00E94E00561E08091E8
:1036F000F0120E94E005CAEED2E19E012A5E32413C
:103700008091F91284FD0BC084E090E02196281787
:10371000390744F461E08E810E94E005EECF88E035
:1037200090E0F4CF8BE39DE00197F1F760E08091AA
:10373000EE120E94B20560E08091F0120E94B20584
:103740008091EF128F3F19F060E00E94B2058091E6
:10375000F91284FD34C063E08AEE92E10E94B71A48
:10376000CBE4D6E4CE010197F1F763E08AEE92E173
:103770000E94B71A2197F1F763E08AEE92E10E9466
:10378000B71A83E592E00197F1F762E08AEE92E1E1
:103790000E94B71A8091F91280620E94371B84E060
:1037A0008093FA128CE00E94371B0E943D1B82E03E
:1037B0008093FB1286E0DF91CF910C94371B8062DF
:1037C0000E94371B8BE496E40197F1F78091F91280
:1037D00080620E94371B83E592E00197F1F78091A8
:1037E000F91280620E94371BD5CF41E00E94E41A93
:1037F00081E090E00895CF93DF939091610991115A
:1038000007C0D82F80916209D03229F4803188F026
:10381000DF91CF910895803160F061E080E00E94F7
:10382000451B68E874E08AEE92E10E942A0A109231
:103830006209C091620961E08C2F0E94451B6D2FC7
:103840008AEE92E10E94F51BCF5FC0936209E0CF40
:10385000AF92BF92CF92DF92EF92FF920F931F939E
:10386000CF93DF9300D01F92CDB7DEB78C016B01F1
:103870007A018091D6098333E9F45B016801C40EB3
:10388000D51EC016D106A9F10E94AC0B8FE00E9494
:10389000EC0B812F0E94EC0B802F0E94EC0B0F5F32
:1038A0001F4F80E00E94EC0BF50181935F010E94A5
:1038B000A20BE7CF843369F50E94AC0B19830A830E
:1038C0008F2D8F778B83EC8264E070E0CE010196C0
:1038D0000E94880BA70170E060E0C6010E949B5E19
:1038E000E114F10421F0B701C6010E94880B0E9487
:1038F000A20BC7010F900F900F900F90DF91CF9107
:103900001F910F91FF90EF90DF90CF90BF90AF90FD
:1039100008950E94AC0B0F3F110509F030F4198295
:103920000A831B8263E070E0D1CF17FD0BC01982C0
:103930000A8333E0169507953A95E1F7007E086013
:103940000B83F0CFC80126E0969587952A95E1F77D
:10395000807E19830A830115104C18F480618B83D3
:10396000E1CF8861FCCFCF93DF931F92CDB7DEB755
:1039700041E050E0BE016F5F7F4F0E94281C8981AB
:103980000F90DF91CF91089590E080E00C94B31CEC
:10399000CF93DF93C4E1D0E00E94C41C882361F080
:1039A00061E070E080E090E00E9492092197A1F729
:1039B00080E0DF91CF91089581E0FBCFCF9380919C
:1039C0009A088111BCC060E372E080E090E00E9440
:1039D00092090E949018EFEFF7E0E491F0E0EE0F0B
:1039E000FF1FE552F84F859194919093980880932A
:1039F0009708EFE9F7E0E491E093960861E08AE048
:103A00000E94E0050E94A20B80E591E00E94200D3B
:103A100084E38093D60980E80E94EE0C0E94C81CC3
:103A2000882391F188E00E94EE0C0E94C41C88302B
:103A300059F580E10E94EE0C0E94C41C803121F5F2
:103A400080E00E94EE0C0E94C41CC82F81111CC093
:103A50008FE190E00E94B31C8330B1F480E4809346
:103A6000990842E06EE170E08C2F0E94F30C42E076
:103A70006FE170E08C2F0E94F30CCF5FC83089F7A4
:103A800081E080939A0859C087E38093D60980E843
:103A90000E94EE0C0E94C81C8823F9F088E00E9466
:103AA000EE0C0E94C41C8830C1F480E10E94EE0C30
:103AB0000E94C41CC82F803181F480E00E94EE0C6B
:103AC0000E94C41C811109C089E390E00E94B31CCC
:103AD000843019F4C0939908D3CF83E38093D60937
:103AE00080E80E94EE0C0E94C81C882319F180E136
:103AF0000E94EE0C0E94C41C8031E1F482E10E941D
:103B0000EE0C0E94C41C8231A9F480E00E94EE0CED
:103B10000E94C41C81110EC084E08093990865E561
:103B20008BE190E00E94DD0C65E58AE190E00E9467
:103B3000DD0CA6CF1092D60980E0CF91089581E0E8
:103B4000FCCFCF92DF92EF92FF920F931F93CF9310
:103B5000DF936C01EB017A0189010E94DE1C88234E
:103B600021F180E591E00E94200D46E050E068E3FD
:103B700072E089E090E00E94F30BC60102960E9479
:103B8000C80CC70102960E94D60CC80102960E947A
:103B9000CF0C8A819B81AC81BD8180935A0D90931B
:103BA0005B0DA0935C0DB0935D0DDF91CF911F91E4
:103BB0000F91FF90EF90DF90CF900895209199089A
:103BC00030E0322F2227620F731F90E0982F882752
:103BD000860F971F0C94B31CCF93C82F462F61E01C
:103BE00070E00E94F30C61E070E08C2F0E94DE1DFB
:103BF0008111F9CFCF910895CF93C82F80E591E03F
:103C00000E94200D60E170E08C2FCF910C94EC1D90
:103C1000CF93DF93EC01888D883020F40E94FC1D47
:103C200088E0888FDF91CF910895CF93FC01C08DFC
:103C300080E591E00E94200D60E270E08C2F0E94F0
:103C4000EC1D62E070E08C2F0E94DE1D84FD16C02A
:103C500062E070E08C2F0E94DE1D83FF0AC048E105
:103C600062E070E08C2F0E94F30C80E090E0CF9136
:103C7000089580E591E00E94200DE3CF40E162E0ED
:103C800070E08C2F0E94F30C81E0F0CF0E94DE1CCC
:103C9000882331F08091D609843329F0873381F06D
:103CA00090E080E0089580E591E00E94200D85E39A
:103CB00090E00E94B31C85FD0DC082E090E0089565
:103CC00080E591E00E94200D8EE290E00E94B31CFE
:103CD00080FFF3CF81E090E008951F93CF93DF93AF
:103CE0001F92CDB7DEB7FC01108D183020F5818D05
:103CF000928D892B01F180E591E00E94200D812FAA
:103D00000E94B70B27E0129FF0011124E256F64FF4
:103D100022813381377041E050E0BE016F5F7F4FF9
:103D2000820F931F0E94281C898190E00F90DF91E1
:103D3000CF911F9108958FEF9FEFF8CFDA01E091B7
:103D40009908F0E0FE2FEE27E60FF71F90E0982F7E
:103D50008827A901BD018E0F9F1F0C94281C8F92EC
:103D60009F92AF92BF92CF92DF92EF92FF920F930A
:103D70001F93CF93DF93CDB7DEB760970FB6F8945C
:103D8000DEBF0FBECDBF7C019091D609911115C049
:103D900018E0812F60960FB6F894DEBF0FBECDBF3E
:103DA000DF91CF911F910F91FF90EF90DF90CF9017
:103DB000BF90AF909F908F90089508E0933309F4DF
:103DC00004E06B0180E591E00E94200D9E012F5FD1
:103DD0003F4F5901490110E063E070E0812F0E94DC
:103DE000DE1DF40181934F018823C1F01F5F011391
:103DF000F3CF00E0F50181915F018D3149F0883109
:103E000039F08A51823020F00F5F1013F3CFC0CF0A
:103E100060E170E0802F0E94EC1D102FA12EB12CCC
:103E200083EE93E00197F1F742E870E060E0812FC4
:103E30000E94F30C4FEF62E070E0812F0E94F30CC0
:103E4000B601C114D10491F48091310290913202F3
:103E500001968115F0EC9F0708F464C0909332023C
:103E6000809331026091310270913202812F0E9461
:103E7000B20C86E0E8E4F2E0DE01199601900D92C2
:103E80008A95E1F7F70183818F778C8784818D870D
:103E900085818E87A7014E5F5F4F24E030E06CE0A4
:103EA00070E0812F0E94A10CDF86C88A22E030E0FA
:103EB000AE01415F5F4F60E170E0812F0E94A10C75
:103EC00026E030E0AE01475F5F4F66E070E0812F93
:103ED0000E94A10C61E070E0812F0E94EC1D27E0A0
:103EE0002A9DC0012B9D900D11249C012256364F16
:103EF0007901F9011182108222E030E0AE01415FC8
:103F00005F4F68E270E0812F0E949E1E8F85988926
:103F1000982789279827F701938382831682158231
:103F2000148237CF80E090EC99CFCF92DF92EF925E
:103F3000FF920F931F93CF93DF9300D000D0CDB7A4
:103F4000DEB78C016B017A01FC01808D883010F4A2
:103F50000E94FC1D84E293E09A838983F6018281AA
:103F60009381A481B5818B839C83AD83BE83B7018C
:103F7000CE0101960E94AF1EF801808F8830A0F418
:103F8000F586E486128E118E81E026960FB6F8949F
:103F9000DEBF0FBECDBFDF91CF911F910F91FF907C
:103FA000EF90DF90CF90089580E0EFCFFF920F93D6
:103FB0001F93CF93DF931F921F92CDB7DEB7F82EDA
:103FC00022E030E0AE014F5F5F4F66E270E00E949A
:103FD0009E1E09811A8110270127102722E030E058
:103FE000AE014F5F5F4F66E270E08F2D0E949E1E14
:103FF00089819A819827892798270817190749F4F2
:10400000C8010F900F90DF91CF911F910F91FF90FA
:1040100008958C01E3CF4F925F927F928F929F928F
:10402000AF92BF92CF92DF92EF92FF920F931F93C6
:10403000CF93DF931F921F92CDB7DEB7782E6B011F
:104040004A01A82EB12C27E0829FC0011124FC0157
:10405000E256F64F7F010081118180E591E00E94D8
:10406000200D0815190554F4872D0E94D61FF7015D
:1040700026818C01021B1109118300830115110592
:1040800029F563E070E0872D0E94DE1D843159F030
:10409000882349F001E010E08C3111F410E000E0D9
:1040A000119501951109C8010F900F90DF91CF91E3
:1040B0001F910F91FF90EF90DF90CF90BF90AF9046
:1040C0009F908F907F905F904F90089580169106FB
:1040D0000CF4840187E08A9DF0018B9DF00D112482
:1040E000E256F64FE280F380C114D10451F127016A
:1040F000F7E05F22872D0E94B70B840D951D20915C
:10410000D609273309F453C09801240D351D2130F9
:10411000384008F44CC020E038E049018418950884
:10412000A401B6010E94281C2601480C591C6801F4
:10413000C818D908872D0E94B70BA601B2010E94AA
:10414000281CE00EF11E87E08A9DF0018B9DF00D8A
:104150001124E256F64FF382E28220813181201B46
:10416000310B318320838681800F912F911D8A3FEF
:10417000910510F4232BF1F487E08A9DF0018B9DCB
:10418000F00D1124E256F64F1682F982EA8222E0FF
:1041900030E0AE014F5F5F4F68E270E0872D0E9414
:1041A000A10C60E470E0872D0E94EC1D7CCFA8017B
:1041B000B601C5CF868377CFCF93DF93FC01218DE6
:1041C000328D2115310529F48FEF9FEFDF91CF91CB
:1041D0000895EC01808D4217530708F0A9010E9451
:1041E0000B201816190684F7298D3A8D281B390BD8
:1041F0003A8F298FEBCF0F931F93CF93DF931F92AB
:10420000CDB7DEB7FC01218D328D232B41F48FEF2A
:104210009FEF0F90DF91CF911F910F9108958C0127
:1042200041E050E0BE016F5F7F4FFC01808D0E9436
:104230000B20181619065CF7F801818D928D0197F5
:10424000928F818F898190E0E4CF3F924F925F926D
:104250006F927F928F929F92AF92BF92CF92DF9296
:10426000EF92FF920F931F93CF93DF931F921F92B2
:10427000CDB7DEB75C014B01342E452EFC016688BC
:104280007788508C80E591E00E94200D22E030E09C
:10429000AE014F5F5F4F60E270E0852D0E949E1E71
:1042A000C980DA80DC24CD24DC2422E030E0AE01B9
:1042B0004F5F5F4F60E270E0852D0E949E1E8981F6
:1042C0009A81982789279827C816D90609F079C0B6
:1042D000E52CF12C67E0569EF0011124E256F64FD2
:1042E000D582C482032D142DC016D10608F4860190
:1042F00022E030E0AE014F5F5F4F64E270E0852D59
:104300000E949E1E89819A81982789279827680E86
:10431000791E930137704091D609433309F053C099
:1043200088E0E80EF11CFE2CEE24FF0CFF0CFF0CC5
:10433000C9018E0D9F1D473309F449C0A901400FE3
:10434000511F4130584008F442C060E078E06B01F2
:10435000C21AD30AA601B4010E94F30BA8014C199A
:104360005D09B4016C0D7D1DC7010E94F30B600E49
:10437000711E79826A8222E030E0AE014F5F5F4FAA
:1043800064E270E0852D0E94A10CF5018689978971
:10439000800F911F978B868BC8010F900F90DF9134
:1043A000CF911F910F91FF90EF90DF90CF90BF9032
:1043B000AF909F908F907F906F905F904F903F90C5
:1043C00008956C0172CFE0E1EE0EF11CACCFA801B4
:1043D000B401CBCF8F929F92AF92BF92CF92DF92D8
:1043E000EF92FF920F931F93CF93DF9300D000D0F3
:1043F00000D01F92CDB7DEB76C015B01FC01808D50
:10440000883010F40E94FC1D8091D609811117C0DC
:1044100088E0F601808F80E02A960FB6F894DEBF20
:104420000FBECDBFDF91CF911F910F91FF90EF9005
:10443000DF90CF90BF90AF909F908F90089508E04D
:10444000833309F404E080E591E00E94200D9E0191
:104450002F5F3F4F4901790110E063E070E0812F49
:104460000E94DE1DF70181937F018823C1F01F5F49
:104470000113F3CFF12CF40181914F018D3149F0FB
:10448000883139F08A51823020F0F3941F11F3CF34
:10449000BFCF60E170E08F2D0E94EC1D1F2DE12E3B
:1044A000F12C83EE93E00197F1F742E070E060E0D9
:1044B000812F0E94F30C4FEF62E070E0812F0E9489
:1044C000F30CB501A114B10489F4809131029091EB
:1044D000320201968115F0EC9F07D0F190933202E1
:1044E000809331026091310270913202812F0E94DB
:1044F000B20C61E070E0812F0E94EC1D27E02E9D40
:10450000C0012F9D900D11249C012256364F790138
:10451000F9011182108222E030E0AE01475F5F4F67
:1045200068E270E0812F0E949E1E89859A859827F7
:1045300089279827F7019383828316821582148234
:10454000F601108FB586A486128E118E81E064CF9D
:1045500080E090ECC3CFCF93DF93EC0184E293E053
:10456000998388831A821B821C821D8280E591E0D8
:104570000E94200DBE016E5F7F4F44E050E08FE04F
:1045800090E00E94281CCE01DF91CF910895FB019D
:1045900001900020E9F73197AF01461B570BDC0172
:1045A000ED91FC910280F381E02D1994CF93DF937C
:1045B000682F87E99CE00E94150AEC0164E473E02F
:1045C00087E99CE00E94C7228C0F9D1FDF91CF914D
:1045D0000895CF93DF93BC0187E99CE00E942A0AEB
:1045E000EC0164E473E087E99CE00E94C7228C0F31
:1045F0009D1FDF91CF9108958F929F92AF92BF92AE
:10460000EF92FF920F931F93CF93DF93CDB7DEB757
:10461000A1970FB6F894DEBF0FBECDBF7C01FA01A3
:10462000CB0119A2223008F42AE08E010F5D1F4F42
:10463000822E912CB12CA12CBF01A50194010E94C6
:10464000105CF901CA016A300CF5605DD8016E9307
:104650008D01232B242B252B79F790E080E01097F8
:1046600021F0BD01C7010E94C722A1960FB6F894A0
:10467000DEBF0FBECDBFDF91CF911F910F91FF9095
:10468000EF90BF90AF909F908F900895695CDECFC0
:104690008F929F92AF92BF92CF92DF92EF92FF9252
:1046A0000F931F93CF93DF937C018B016C0182E00A
:1046B000C80ED11C4701E5E08E0E911CD0E0C0E091
:1046C000F60141916F0150E070E060E02AE0C8011E
:1046D0000E94FC225C016EE2C8010E94150A8A0D4C
:1046E0009B1DC80FD91FC814D90451F7F701458184
:1046F00050E070E060E02AE0C8010E94FC228C0FCC
:104700009D1FDF91CF911F910F91FF90EF90DF9050
:10471000CF90BF90AF909F908F900895CF93DF93ED
:1047200067E97CE00E944823EC0164E473E087E9D8
:104730009CE00E94C7228C0F9D1FDF91CF910895AE
:10474000EF92FF920F931F93CF9383E10E9489050D
:104750007C0183E00E9489058C0182E00E9489052A
:10476000C1E0892B09F0C0E080912D02882381F1FE
:1047700080915E098C17B1F080918F09882391F0A8
:104780006CE774E087E99CE00E942A0A4C2F50E015
:1047900070E060E02AE087E99CE00E94FC228DE561
:1047A0000E94D622C0935E0910925F09C0E0EF28F4
:1047B000A1F00130110589F0C11102C0C0910409B6
:1047C0008C2FCF911F910F91FF90EF900C949B191C
:1047D000C0935F0910925E09EACFC1E0F1CFCF929A
:1047E000DF92EF92FF92CF93C091B30880915E0960
:1047F000813001F5CC23C1F060E088E20E94B2056F
:1048000060E08FE10E94B20560E089E20E94B2059B
:1048100060E086E10E94B20560E089E10E94B20595
:104820001092B30810920D09CF91FF90EF90DF9096
:10483000CF9008950E94C4096B017C01C43008F038
:1048400050C080910D09C13008F489C0811151C157
:104850008091750890917608A0917708B0917808BA
:10486000B701A601481B590B6A0B7B0B80912702ED
:1048700090912802092E000CAA0BBB0B4817590770
:104880006A077B0788F2EC2FF0E0EE0FFF1FE25B78
:10489000FD4F60E080810E94B205C0927508D09201
:1048A0007608E0927708F092780880918F09882343
:1048B000A1F060E474E087E99CE00E942A0A40913C
:1048C000B30850E070E060E02AE087E99CE00E94D5
:1048D000FC228CE394E00E94E92284E08093B308F8
:1048E000A3CFC43009F47FC0C53009F09DCF8091BB
:1048F000750890917608A0917708B0917808B70173
:10490000A601481B590B6A0B7B0B80910D0988236C
:1049100009F445C080915C0990915D09092E000C55
:10492000AA0BBB0B481759076A077B0708F47CCF13
:1049300061E08FE10E94B205C0927508D0927608BE
:10494000E0927708F092780884E08093B308809131
:104950008F09882309F468CF85E694E019C088237D
:1049600009F462CF61E088E20E94B205C092750846
:10497000D0927608E0927708F092780885E08093EC
:10498000B30880918F09882309F44ECF80E794E023
:10499000CF91FF90EF90DF90CF900C94E92280911F
:1049A000580990915909092E000CAA0BBB0B481706
:1049B00059076A077B0708F437CF60E088E20E9456
:1049C000B205C0927508D0927608E0927708F0920E
:1049D00078081092B30880918F09882309F424CFB6
:1049E00089E594E0D5CF80910D09882309F44EC064
:1049F00080915F09811118CF809175089091760898
:104A0000A0917708B0917808B701A601481B590B0F
:104A10006A0B7B0B80912B0290912C02092E000CCB
:104A2000AA0BBB0B481759076A077B0708F4FCCE93
:104A3000C0910F02EC2FF0E0EE0FFF1FE25BFD4F85
:104A400061E080810E94B205C0927508D09276081C
:104A5000E0927708F0927808C093B30880918F09AC
:104A6000882309F4E1CE64E574E087E99CE00E94C4
:104A70002A0A40910F0250E070E060E02AE087E9E6
:104A80009CE00E94FC2280E594E082CF8091750832
:104A900090917608A0917708B0917808B701A601A7
:104AA000481B590B6A0B7B0B80915A0990915B094B
:104AB000092E000CAA0BBB0B481759076A077B0786
:104AC00008F4B2CE60E08FE10E94B205C092750892
:104AD000D0927608E0927708F092780885E080938B
:104AE000B30880918F09882309F49ECE85E494E071
:104AF0004FCFC0927508D0927608E0927708F09276
:104B0000780892CE3F924F925F926F927F928F92EF
:104B10009F92AF92BF92CF92DF92EF92FF920F934C
:104B20001F93CF93DF935C016B012A01390194E05D
:104B3000000F111F9A95E1F720E102270064F501AB
:104B4000008382E08183F282E382FB0180818F32E5
:104B500019F4FFEFCF1ADF0A10E0C4E0D0E08BE0D9
:104B6000382EF6018081882309F459C06FE270E085
:104B7000C6010E94A25E7C01009739F08C1971F485
:104B80006701FFEFCF1ADF0AECCFF601019000209A
:104B9000E9F7CF0101978C1909F441C0432D411B5E
:104BA000982F8E3008F09DE021E030E08D3010F439
:104BB00030E020E02F5F3F4F882E912C280D391DCB
:104BC0002C0F3D1F2E36310550F58E010F5F1F4F04
:104BD000F501EC0FFD1F20E1429FA0011124942B51
:104BE00090838D3038F0F501E00FF11F8D508083F8
:104BF0000F5F1F4FA401B601C501800F911F0E94D6
:104C0000925EE401C00FD11FC80CD91CE114F1045D
:104C100021F067018FEFC81AD80A1BE0A2CFCE019E
:104C200002968E369105D0F40CE610E00C1B1D0B9D
:104C30006016710608F483017E01EFEFEE1AFE0A9A
:104C4000CA0DDB1D8FEF8883A801B201C5018E0D4F
:104C50009F1D0E94925EE801CE0DDF1DCE01DF9107
:104C6000CF911F910F91FF90EF90DF90CF90BF9069
:104C7000AF909F908F907F906F905F904F903F90FC
:104C800008952F923F924F925F926F927F928F92F0
:104C90009F92AF92BF92CF92DF92EF92FF920F93CB
:104CA0001F93CF93DF93CDB7DEB7C357D1090FB6AC
:104CB000F894DEBF0FBECDBF5C014B013A0187E027
:104CC000C82E8EE0D82E94E2292E93E0392E44246B
:104CD0004394512CF6018285882379F1E090E30D0D
:104CE000F090E40DC701019609F449C09093E40DDA
:104CF0008093E30D10E000E09301A401B501CE0123
:104D000001960E948225F60164817581E0963FAE8E
:104D10002EAEE0970081118122813381E4960CAFA1
:104D20001DAF2EAF3FAFE4979C01AE014F5F5F4FC9
:104D3000CE0182599F4F0E946504FDE2CF0ED11C27
:104D400085E1C8168FE0D80629F6CD58DF4F0FB69B
:104D5000F894DEBF0FBECDBFDF91CF911F910F91B1
:104D6000FF90EF90DF90CF90BF90AF909F908F908B
:104D70007F906F905F904F903F902F90089550924A
:104D8000E40D4092E30DB6CF2F923F924F925F9287
:104D90006F927F928F929F92AF92BF92CF92DF924B
:104DA000EF92FF920F931F93CF93DF9300D01F9248
:104DB000CDB7DEB78091070290910802019709F004
:104DC00082C2C0908907D0908A07E0908B07F0904C
:104DD0008C07C114D104E104F104E1F00E94C4097C
:104DE0006C197D098E099F0997FD14C010928907DF
:104DF00010928A0710928B0710928C0780ED97E033
:104E0000A0E0B0E08093010290930202A09303021D
:104E1000B09304020E94C4090091AF081091B00839
:104E20002091B1083091B208601B710B820B930B7B
:104E300000910102109102022091030230910402BC
:104E4000601771078207930768F083E00E94FD19DD
:104E50000E94C4096093AF087093B0088093B108B2
:104E60009093B208EE24E3945CE0252E6BE0362E9E
:104E70007AE0C72EE9E07E2EF8E0DF2EA7E06A2E6A
:104E8000BEE05B2E15E0412E8AEF9BE00E94AC0A4B
:104E9000181619060CF0F6C18AEF9BE00E948A0AE8
:104EA000982F10928807E0910002E150E031F0F471
:104EB000F0E08827E15AF84D8F4F0C94555C6F272E
:104EC00073287B288F289828A628AF28B628BD28C5
:104ED000C428CB28D228DA28E128E728ED289E3FED
:104EE00029F482E08093000290937E0780918207EC
:104EF000882329F0833019F0853009F075C190912D
:104F000088079D3F09F070C1F090870700918607E0
:104F100010918507F0918407E0918307AF2DAF7062
:104F2000B0E020E031EE45EF55E00E94FD5B4B0123
:104F30005C01A02FAF70B0E020E432E44FE050E01D
:104F40000E94FD5B860E971EA81EB91E8E2F8F70C5
:104F5000880E911CA11CB11C212F2F7030E0A0E104
:104F6000B7E20E94325C860E971EA81EB91E2F2F34
:104F70002F7030E0A4E6B0E00E94325C860E971EEF
:104F8000A81EB91EAF2DB0E084E0B595A7958A950F
:104F9000E1F720E03AEC4AE95BE30E94085C860E08
:104FA000971EA81EB91EA02FB0E094E0B595A79556
:104FB0009A95E1F720E836E948E950E00E94085C5C
:104FC000860E971EA81EB91EA12FB0E024E0B5954D
:104FD000A7952A95E1F720EA36E841E050E00E94E3
:104FE000085C860E971EA81EB91EAF2FB0E034E0F5
:104FF000B595A7953A95E1F728EE33E00E94645CF9
:10500000860E971EA81EB91EAE2FB0E044E0B595DF
:10501000A7954A95E1F72AE030E00E94645C860E8D
:10502000971EA81EB91E0E94C4096093AB08709316
:10503000AC088093AD089093AE0810928807109248
:10504000820780917E09E0927E09882369F0809131
:105050007A0890917B08A0917C08B0917D08881512
:105060009905AA05BB05D9F180927A0890927B0830
:10507000A0927C08B0927D0880918F098823B1F0BE
:1050800062E274E087E99CE00E942A0A40917A0873
:1050900050917B0860917C0870917D082AE087E937
:1050A0009CE00E94FC228DE50E94D6228091790826
:1050B0008823A9F080917A0890917B08A0917C08C0
:1050C000B0917D0889839A83AB83BC8344E050E030
:1050D000BE016F5F7F4F87E493E00E94412684E02A
:1050E0000E94FD19D1CE9E3FF1F583E0809300022E
:1050F00090937F07FBCE992331F0903E21F09E30B4
:1051000011F0913F31F484E0809300029093800786
:10511000EDCE80910602981326C086E0F5CF8091EF
:105120000602981320C04092000290938107DECEC1
:10513000992311F0933019F4D092000204C09430F6
:1051400091F45092000290938207D0CE992321F0DF
:10515000903E11F0913F39F460920002E6CF99231E
:1051600059F3953049F3E0920002C0CE9A39D8F74E
:105170007092000290938307B9CE9A39A0F7C0923B
:10518000000290938407B2CE9A3968F730920002F9
:1051900090938507ABCE9A3930F720920002909316
:1051A0008607A4CE9A39F8F62DE02093000290935A
:1051B00087079CCE9D3FB9F6E09200029093880746
:1051C00095CE933180F68FE080930002D3CF943058
:1051D00050F620E120930002D4CFE09200029D3FE0
:1051E000B9F21092850782CE843009F04DCE8091BD
:1051F00085078D3F09F048CE109183070E94C409AE
:105200006093AB087093AC088093AD089093AE08A0
:10521000109285071092820780912F02181709F4C7
:1052200033CE10932F0280918F098823C9F067E154
:1052300074E087E99CE00E942A0A103128F460E3B8
:1052400087E99CE00E94150A412F50E070E060E081
:1052500020E187E99CE00E94FC228DE50E94D62295
:1052600080917908882309F40FCE80912F028983D9
:1052700041E050E0BE016F5F7F4F8BE493E00E94FE
:10528000412602CE80917E098823E9F00E94C4095C
:105290000091AB081091AC082091AD083091AE0898
:1052A000601B710B820B930B613177428105910575
:1052B00050F010927E0980918F09882321F08FEFA2
:1052C00093E00E94E9220F900F900F900F90DF91D2
:1052D000CF911F910F91FF90EF90DF90CF90BF90F3
:1052E000AF909F908F907F906F905F904F903F9086
:1052F0002F9008958F929F92AF92BF92CF92DF929C
:10530000EF92FF920F931F93CF93DF93CDB7DEB74A
:10531000AC970FB6F894DEBF0FBECDBF7B010DEB8F
:105320001DE0D8010D900020E9F78D010E5B1D40B6
:105330009AEA998391E09A838B830C831127A801C1
:105340006DEB7DE0CE0105960E94925E8BEBC82E40
:105350008DE0D82EF60142A153A1E5E0F0E0EC0F7C
:10536000FD1FE00FF11F5083FE01E00FF11F468388
:10537000D6018D919C91DC01ED91FC910488F58919
:10538000E02D24E233E038A72FA3D70112968D90A9
:105390009D90AD90BC90159789A69AA6ABA6BCA689
:1053A000BE01695D7F4F1995F60180819181A80149
:1053B0004A5F5F4FDC01ED91FC910280F381E02DAB
:1053C000BE016F5F7F4F1995F60180819181DC01ED
:1053D000ED91FC91008CF18DE02D1995AC960FB6F6
:1053E000F894DEBF0FBECDBFDF91CF911F910F911B
:1053F000FF90EF90DF90CF90BF90AF909F908F90F5
:105400000895DC0184E293E08D939D9384E0FB0199
:1054100001900D928A95E1F70895DF92EF92FF9245
:105420000F931F93CF93DF9300D000D01F921F9252
:10543000CDB7DEB78C01D80159964D915C915A9742
:105440004115510551F0ED91FC91048CF58DE02D45
:1054500070E060E0C8011995EECFF801D08CF7E05C
:10546000DF9EC00111249C012256364F7901D901DB
:105470008D919C91892B59F148E050E0BE016F5FFE
:105480007F4FF801808D0E940B201816190694F5A5
:10549000D801509684E0FE01319601900D928A95D4
:1054A000E1F78D8190E0982F88272E81820F911D42
:1054B000F801958B848B8F81282F30E0322F2227A3
:1054C0008885820F932F911D928F818F13C080E565
:1054D00091E00E94200D8D2D0E94D61FD7011696B7
:1054E0002C911697821B91098D939C93892B21F601
:1054F00090E080E028960FB6F894DEBF0FBECDBFD7
:10550000DF91CF911F910F91FF90EF90DF90089561
:105510006F927F928F929F92AF92BF92CF92DF92C3
:10552000EF92FF920F931F93CF93DF93CDB7DEB728
:10553000EC970FB6F894DEBF0FBECDBF4C018B01C8
:105540003A0184E293E09A8389831C861B8648EEA5
:1055500053E060E070E04D875E876F87788B2AEFBD
:1055600032E03A872987988F8F8B198E1A8E1B8E7F
:105570001C8E28E029A399AB88AB1AAA1BAA1CAAE7
:105580001DAA80915A0D90915B0DA0915C0DB09178
:105590005D0D8EA39FA3A8A7B9A78B839C83AD8322
:1055A000BE8318861F82F80120E090E080E06AE068
:1055B0003191332309F47AC040ED430F4A3008F0AB
:1055C00064C0689FA001699F500D1124CA01C09753
:1055D000830F911D37FD9A958F3F910549F340F355
:1055E0004B815C816D817E818091660D9091670D0C
:1055F000A091680DB091690D481759076A077B079C
:1056000009F428C20E94C4096F7077277C5FCE011D
:1056100009960E94EA21813009F01FC284E293E0DA
:105620009DA38CA38B819C81AD81BE818EA39FA302
:10563000A8A7B9A745E350E0BE016C5D7F4FCE013E
:1056400009960E94230D892B09F04EC010E000E05E
:10565000CE0109960E94081E0130110559F1C801BA
:10566000EC960FB6F894DEBF0FBECDBFDF91CF91A1
:105670001F910F91FF90EF90DF90CF90BF90AF9070
:105680009F908F907F906F9008953E3209F0A8CF41
:10569000233009F4A5CFA2E3B0E0AC0FBD1FA20FE9
:1056A000B11D8C932F5F90E080E082CF233009F012
:1056B00097CF8DABD401ED91FC910488F589E02D55
:1056C00084E293E09DA38CA38AA99BA9ACA9BDA960
:1056D0008EA39FA3A8A7B9A7A301BE016C5D7F4FAE
:1056E000C40119958C01BBCF0E94C40978876F83D0
:1056F00042E050E0BE01695F7F4FCE0109960E94F3
:10570000252181E090E09DA38CA342E050E0BE0102
:105710006C5D7F4FCE0109960E94252180E091E0CB
:105720009DA38CA342E050E0BE016C5D7F4FCE0193
:1057300009960E9425211DA21CA242E050E0BE0154
:105740006C5D7F4FCE0109960E94252142E050E01A
:10575000BE016C5D7F4FCE0109960E94252142E07B
:1057600050E0BE016C5D7F4FCE0109960E9425215D
:105770007801D8018C91882311F18701F80181917A
:105780006F01882311F08E32C1F45801AE18BF08A2
:105790001A141B0484F4AEAA41E050E0BE016A5C16
:1057A0007F4FCE0109960E942521A501B701CE01A8
:1057B00009960E9425217601DCCF8601DFCF1EAA43
:1057C00041E050E0BE016A5C7F4FCE0109960E9425
:1057D000252100E011E01DA30CA342E050E0BE0132
:1057E0006C5D7F4FCE0109960E9425211DA30CA35D
:1057F00042E050E0BE016C5D7F4FCE0109960E94F1
:105800002521CE0109960E94151E892B09F41ECF71
:1058100083E0E82EF12CD7C04B815C816D817E81C5
:10582000898D9A8DAB8DBC8D481759076A077B0708
:1058300009F00AC18D8D9E8DC59709F005C18AA119
:105840009BA10DEF1FEF0C970CF4B4C04CE050E09F
:10585000BE016C5D7F4FCE0109960E94DC208EA1B7
:105860009FA19827892798279BAF8AAF4F8158859A
:105870002CA13DA14217530709F0E9C097FFE7C0EB
:105880008F7092700BEF1FEF892B09F093C0AAA4C1
:10589000BBA4BA24AB24BA240AEF1FEFA114B104AD
:1058A00009F488C010E000E088A599A59827892709
:1058B00098270817190708F541E050E0BE016A5C17
:1058C0007F4FCE0109960E94DC204EA9442339F077
:1058D00050E070E060E0CE0109960E94DC208EA9C5
:1058E0008111EACF44E050E070E060E0CE0109961B
:1058F0000E94DC200F5F1F4FD7CFD12CC12C41E07D
:1059000050E0BE01645C7F4FCE0109960E94DC200E
:105910004CAD842F807C09F074C0442339F050E0F2
:1059200070E060E0CE0109960E94DC208CAD811110
:10593000E6CF42E050E0BE01685C7F4FCE010996A1
:105940000E94DC2042E050E0BE016A5C7F4FCE0145
:1059500009960E94DC2044E050E070E060E0CE0157
:1059600009960E94DC2042E050E0BE01665C7F4F59
:10597000CE0109960E94DC2088AD99AD4AAD5BADA1
:105980008115914009F047C00EA91FA910270127D2
:1059900010270130110509F03EC04115544009F0AF
:1059A0004DC044E050E0BE016E5C7F4FCE010996D1
:1059B0000E94DC20F1E0EF1AF10809F449CE0F3F14
:1059C000100709F045CE0E94C4095B016C01CE01AD
:1059D00009960E940D2A181619060CF41DCF0E9474
:1059E000C4096A197B098C099D09693873418105CD
:1059F000910538F562E370E080E090E00E94920942
:105A0000E6CF41E050E070E060E0CE0109960E94F0
:105A1000DC201CAE8BCF54274527542770E060E074
:105A2000CE0109960E94DC20EFEFCE1ADE0AAC14FC
:105A3000BD0409F064CF06EF1FEFBCCF07EF1FEFE7
:105A4000B9CF0FEF1FEFB6CF0EEF1FEFB3CF0CEFB5
:105A50001FEFB0CF0EEF1FEF02CE10E000E0FFCD42
:105A6000CF93DF934130510561F4FB018081833096
:105A700011F08F3F31F481E080935509DF91CF9190
:105A80000895EA014134510510F0C0E4D0E0AE01C0
:105A900083E199E00E94925ECD5ED64F188281E04C
:105AA00080935409EBCF3F924F925F926F927F9217
:105AB0008F929F92AF92BF92CF92DF92EF92FF921E
:105AC0000F931F93CF93DF9300D000D000D01F928D
:105AD000CDB7DEB7FC0101900020E9F73197E81B54
